{
  "contractName": "File",
  "abi": [
    {
      "constant": true,
      "inputs": [],
      "name": "ContentType",
      "outputs": [
        {
          "name": "",
          "type": "string"
        }
      ],
      "payable": false,
      "stateMutability": "view",
      "type": "function"
    },
    {
      "constant": true,
      "inputs": [],
      "name": "RegistryName",
      "outputs": [
        {
          "name": "",
          "type": "string"
        }
      ],
      "payable": false,
      "stateMutability": "view",
      "type": "function"
    },
    {
      "constant": true,
      "inputs": [],
      "name": "UploadDateTime",
      "outputs": [
        {
          "name": "",
          "type": "string"
        }
      ],
      "payable": false,
      "stateMutability": "view",
      "type": "function"
    },
    {
      "constant": true,
      "inputs": [],
      "name": "FileName",
      "outputs": [
        {
          "name": "",
          "type": "string"
        }
      ],
      "payable": false,
      "stateMutability": "view",
      "type": "function"
    },
    {
      "constant": true,
      "inputs": [],
      "name": "FileId",
      "outputs": [
        {
          "name": "",
          "type": "string"
        }
      ],
      "payable": false,
      "stateMutability": "view",
      "type": "function"
    },
    {
      "constant": true,
      "inputs": [],
      "name": "State",
      "outputs": [
        {
          "name": "",
          "type": "uint8"
        }
      ],
      "payable": false,
      "stateMutability": "view",
      "type": "function"
    },
    {
      "constant": true,
      "inputs": [],
      "name": "Etag",
      "outputs": [
        {
          "name": "",
          "type": "string"
        }
      ],
      "payable": false,
      "stateMutability": "view",
      "type": "function"
    },
    {
      "inputs": [
        {
          "name": "registryAddress",
          "type": "address"
        },
        {
          "name": "filename",
          "type": "string"
        },
        {
          "name": "fileId",
          "type": "string"
        },
        {
          "name": "fileHash",
          "type": "string"
        },
        {
          "name": "metadataHash",
          "type": "string"
        },
        {
          "name": "contentType",
          "type": "string"
        },
        {
          "name": "etag",
          "type": "string"
        }
      ],
      "payable": false,
      "stateMutability": "nonpayable",
      "type": "constructor"
    },
    {
      "constant": false,
      "inputs": [],
      "name": "Delete",
      "outputs": [],
      "payable": false,
      "stateMutability": "nonpayable",
      "type": "function"
    },
    {
      "constant": true,
      "inputs": [],
      "name": "Update",
      "outputs": [],
      "payable": false,
      "stateMutability": "pure",
      "type": "function"
    },
    {
      "constant": false,
      "inputs": [
        {
          "name": "ReceiptContractAddress",
          "type": "address"
        }
      ],
      "name": "AddReceipt",
      "outputs": [
        {
          "name": "ReceiptDT",
          "type": "string"
        }
      ],
      "payable": false,
      "stateMutability": "nonpayable",
      "type": "function"
    },
    {
      "constant": true,
      "inputs": [
        {
          "name": "idx",
          "type": "uint256"
        }
      ],
      "name": "GetReceiptDTAtIndex",
      "outputs": [
        {
          "name": "at",
          "type": "string"
        }
      ],
      "payable": false,
      "stateMutability": "view",
      "type": "function"
    },
    {
      "constant": true,
      "inputs": [
        {
          "name": "idx",
          "type": "uint256"
        }
      ],
      "name": "GetReceiptAddressBefore",
      "outputs": [
        {
          "name": "last",
          "type": "address"
        }
      ],
      "payable": false,
      "stateMutability": "view",
      "type": "function"
    },
    {
      "constant": true,
      "inputs": [
        {
          "name": "idx",
          "type": "uint256"
        }
      ],
      "name": "GetReceiptAddressAtIndex",
      "outputs": [
        {
          "name": "at",
          "type": "address"
        }
      ],
      "payable": false,
      "stateMutability": "view",
      "type": "function"
    },
    {
      "constant": true,
      "inputs": [],
      "name": "GetNumberOfReceipts",
      "outputs": [
        {
          "name": "",
          "type": "uint256"
        }
      ],
      "payable": false,
      "stateMutability": "view",
      "type": "function"
    },
    {
      "constant": true,
      "inputs": [],
      "name": "GetFileHash",
      "outputs": [
        {
          "name": "",
          "type": "string"
        }
      ],
      "payable": false,
      "stateMutability": "view",
      "type": "function"
    },
    {
      "constant": true,
      "inputs": [],
      "name": "GetMetadataHash",
      "outputs": [
        {
          "name": "",
          "type": "string"
        }
      ],
      "payable": false,
      "stateMutability": "view",
      "type": "function"
    }
  ],
  "bytecode": "0x60806040523480156200001157600080fd5b5060405162003e2b38038062003e2b8339810180604052810190808051906020019092919080518201929190602001805182019291906020018051820192919060200180518201929190602001805182019291906020018051820192919050505085600290805190602001906200008a92919062001738565b508460039080519060200190620000a392919062001738565b508360089080519060200190620000bc92919062001738565b508260099080519060200190620000d592919062001738565b508160049080519060200190620000ee92919062001738565b5080600590805190602001906200010792919062001738565b506200013a62000125620006bc640100000000026401000000009004565b62000901640100000000026401000000009004565b600690805190602001906200015192919062001738565b50600060078190555086600b60006101000a81548173ffffffffffffffffffffffffffffffffffffffff021916908373ffffffffffffffffffffffffffffffffffffffff160217905550600b60009054906101000a900473ffffffffffffffffffffffffffffffffffffffff16600a60006101000a81548173ffffffffffffffffffffffffffffffffffffffff021916908373ffffffffffffffffffffffffffffffffffffffff160217905550600a60009054906101000a900473ffffffffffffffffffffffffffffffffffffffff1673ffffffffffffffffffffffffffffffffffffffff16638052474d6040518163ffffffff167c0100000000000000000000000000000000000000000000000000000000028152600401600060405180830381600087803b1580156200028557600080fd5b505af11580156200029a573d6000803e3d6000fd5b505050506040513d6000823e3d601f19601f820116820180604052506020811015620002c557600080fd5b810190808051640100000000811115620002de57600080fd5b82810190506020810184811115620002f557600080fd5b81518560018202830111640100000000821117156200031357600080fd5b5050929190505050600190805190602001906200033292919062001738565b50600a60009054906101000a900473ffffffffffffffffffffffffffffffffffffffff1673ffffffffffffffffffffffffffffffffffffffff1663346de76d60036040518263ffffffff167c010000000000000000000000000000000000000000000000000000000002815260040180806020018281038252838181546001816001161561010002031660029004815260200191508054600181600116156101000203166002900480156200042b5780601f10620003ff576101008083540402835291602001916200042b565b820191906000526020600020905b8154815290600101906020018083116200040d57829003601f168201915b505092505050602060405180830381600087803b1580156200044c57600080fd5b505af115801562000461573d6000803e3d6000fd5b505050506040513d60208110156200047857600080fd5b810190808051906020019092919050505015151562000525576040517f08c379a00000000000000000000000000000000000000000000000000000000081526004018080602001828103825260308152602001807f412066696c65207769746820746869732069642068617320616c72656164792081526020017f6265656e20726567697374657265642e0000000000000000000000000000000081525060400191505060405180910390fd5b600a60009054906101000a900473ffffffffffffffffffffffffffffffffffffffff1673ffffffffffffffffffffffffffffffffffffffff166329d99ba13060036040518363ffffffff167c0100000000000000000000000000000000000000000000000000000000028152600401808373ffffffffffffffffffffffffffffffffffffffff1673ffffffffffffffffffffffffffffffffffffffff16815260200180602001828103825283818154600181600116156101000203166002900481526020019150805460018160011615610100020316600290048015620006505780601f10620006245761010080835404028352916020019162000650565b820191906000526020600020905b8154815290600101906020018083116200063257829003601f168201915b50509350505050600060405180830381600087803b1580156200067257600080fd5b505af115801562000687573d6000803e3d6000fd5b5050505060008060006101000a81548160ff02191690836002811115620006aa57fe5b0217905550505050505050506200183b565b620006c6620017bf565b600080600080600042945060009350620006ef8562000f17640100000000026401000000009004565b866000019061ffff16908161ffff1681525050620007226107b261ffff1662000ffa640100000000026401000000009004565b62000744876000015161ffff1662000ffa640100000000026401000000009004565b039250826301e285000284019350826107b287600001510361ffff16036301e1338002840193506064866000015161ffff168115156200078057fe5b06866020019060ff16908160ff1681525050600191505b600c8260ff161115156200080457620007c482876000015162001036640100000000026401000000009004565b60ff1662015180029050848482011115620007f15781866040019060ff16908160ff168152505062000804565b8084019350818060010192505062000797565b600191505b6200082c8660400151876000015162001036640100000000026401000000009004565b60ff168260ff161115156200087757848462015180011115620008615781866060019060ff16908160ff168152505062000877565b6201518084019350818060010192505062000809565b6018603c80878115156200088757fe5b048115156200089257fe5b048115156200089d57fe5b06866080019060ff16908160ff1681525050603c8086811515620008bd57fe5b04811515620008c857fe5b068660a0019060ff16908160ff1681525050603c85811515620008e757fe5b068660c0019060ff16908160ff1681525050505050505090565b606080606080606080600a876040015160ff161015620009c657620009be6040805190810160405280600181526020017f300000000000000000000000000000000000000000000000000000000000000081525062000976896040015160ff1662001122640100000000026401000000009004565b60206040519081016040528060008152506020604051908101604052806000815250602060405190810160405280600081525062001284640100000000026401000000009004565b9150620009ea565b620009e7876040015160ff1662001122640100000000026401000000009004565b91505b600a876060015160ff16101562000aa65762000a9e6040805190810160405280600181526020017f300000000000000000000000000000000000000000000000000000000000000081525062000a56896060015160ff1662001122640100000000026401000000009004565b60206040519081016040528060008152506020604051908101604052806000815250602060405190810160405280600081525062001284640100000000026401000000009004565b905062000aca565b62000ac7876060015160ff1662001122640100000000026401000000009004565b90505b600a876080015160ff16101562000b865762000b7e6040805190810160405280600181526020017f300000000000000000000000000000000000000000000000000000000000000081525062000b36896080015160ff1662001122640100000000026401000000009004565b60206040519081016040528060008152506020604051908101604052806000815250602060405190810160405280600081525062001284640100000000026401000000009004565b945062000baa565b62000ba7876080015160ff1662001122640100000000026401000000009004565b94505b600a8760a0015160ff16101562000c665762000c5e6040805190810160405280600181526020017f300000000000000000000000000000000000000000000000000000000000000081525062000c168960a0015160ff1662001122640100000000026401000000009004565b60206040519081016040528060008152506020604051908101604052806000815250602060405190810160405280600081525062001284640100000000026401000000009004565b935062000c8a565b62000c878760a0015160ff1662001122640100000000026401000000009004565b93505b600a8760c0015160ff16101562000d465762000d3e6040805190810160405280600181526020017f300000000000000000000000000000000000000000000000000000000000000081525062000cf68960c0015160ff1662001122640100000000026401000000009004565b60206040519081016040528060008152506020604051908101604052806000815250602060405190810160405280600081525062001284640100000000026401000000009004565b925062000d6a565b62000d678760c0015160ff1662001122640100000000026401000000009004565b92505b62000f0b62000e16836040805190810160405280600181526020017f2f00000000000000000000000000000000000000000000000000000000000000815250846040805190810160405280600181526020017f2f0000000000000000000000000000000000000000000000000000000000000081525062000e018d6020015160ff1662001122640100000000026401000000009004565b62001284640100000000026401000000009004565b6040805190810160405280600181526020017f200000000000000000000000000000000000000000000000000000000000000081525062000ed4886040805190810160405280600181526020017f3a00000000000000000000000000000000000000000000000000000000000000815250896040805190810160405280600181526020017f3a000000000000000000000000000000000000000000000000000000000000008152508a62001284640100000000026401000000009004565b6020604051908101604052806000815250602060405190810160405280600081525062001284640100000000026401000000009004565b95505050505050919050565b600080600080600092506301e133808581151562000f3157fe5b046107b261ffff1601915062000f5c6107b261ffff1662000ffa640100000000026401000000009004565b62000f7a8361ffff1662000ffa640100000000026401000000009004565b039050806301e285000283019250806107b2830361ffff16036301e1338002830192505b8483111562000fef5762000fc460018303620016ae640100000000026401000000009004565b1562000fd9576301e285008303925062000fe3565b6301e13380830392505b60018203915062000f9e565b819350505050919050565b6000600182039150610190828115156200101057fe5b046064838115156200101e57fe5b046004848115156200102c57fe5b0403019050919050565b600060018360ff1614806200104e575060038360ff16145b806200105d575060058360ff16145b806200106c575060078360ff16145b806200107b575060088360ff16145b806200108a5750600a8360ff16145b80620010995750600c8360ff16145b15620010a957601f90506200111c565b60048360ff161480620010bf575060068360ff16145b80620010ce575060098360ff16145b80620010dd5750600b8360ff16145b15620010ed57601e90506200111c565b6200110782620016ae640100000000026401000000009004565b156200111757601d90506200111c565b601c90505b92915050565b6060600080606060008086141562001172576040805190810160405280600181526020017f300000000000000000000000000000000000000000000000000000000000000081525094506200127b565b8593505b6000841415156200119f578280600101935050600a848115156200119657fe5b04935062001176565b826040519080825280601f01601f191660200182016040528015620011d35781602001602082028038833980820191505090505b5091506001830390505b6000861415156200127757600a86811515620011f557fe5b066030017f0100000000000000000000000000000000000000000000000000000000000000028282806001900393508151811015156200123157fe5b9060200101907effffffffffffffffffffffffffffffffffffffffffffffffffffffffffffff1916908160001a905350600a868115156200126e57fe5b049550620011dd565b8194505b50505050919050565b6060806060806060806060806000808e98508d97508c96508b95508a94508451865188518a518c51010101016040519080825280601f01601f191660200182016040528015620012e35781602001602082028038833980820191505090505b50935083925060009150600090505b8851811015620013a95788818151811015156200130b57fe5b9060200101517f010000000000000000000000000000000000000000000000000000000000000090047f01000000000000000000000000000000000000000000000000000000000000000283838060010194508151811015156200136b57fe5b9060200101907effffffffffffffffffffffffffffffffffffffffffffffffffffffffffffff1916908160001a9053508080600101915050620012f2565b600090505b875181101562001465578781815181101515620013c757fe5b9060200101517f010000000000000000000000000000000000000000000000000000000000000090047f01000000000000000000000000000000000000000000000000000000000000000283838060010194508151811015156200142757fe5b9060200101907effffffffffffffffffffffffffffffffffffffffffffffffffffffffffffff1916908160001a9053508080600101915050620013ae565b600090505b8651811015620015215786818151811015156200148357fe5b9060200101517f010000000000000000000000000000000000000000000000000000000000000090047f0100000000000000000000000000000000000000000000000000000000000000028383806001019450815181101515620014e357fe5b9060200101907effffffffffffffffffffffffffffffffffffffffffffffffffffffffffffff1916908160001a90535080806001019150506200146a565b600090505b8551811015620015dd5785818151811015156200153f57fe5b9060200101517f010000000000000000000000000000000000000000000000000000000000000090047f01000000000000000000000000000000000000000000000000000000000000000283838060010194508151811015156200159f57fe5b9060200101907effffffffffffffffffffffffffffffffffffffffffffffffffffffffffffff1916908160001a905350808060010191505062001526565b600090505b845181101562001699578481815181101515620015fb57fe5b9060200101517f010000000000000000000000000000000000000000000000000000000000000090047f01000000000000000000000000000000000000000000000000000000000000000283838060010194508151811015156200165b57fe5b9060200101907effffffffffffffffffffffffffffffffffffffffffffffffffffffffffffff1916908160001a9053508080600101915050620015e2565b82995050505050505050505095945050505050565b60008060048361ffff16811515620016c257fe5b0661ffff16141515620016d9576000905062001733565b600060648361ffff16811515620016ec57fe5b0661ffff1614151562001703576001905062001733565b60006101908361ffff168115156200171757fe5b0661ffff161415156200172e576000905062001733565b600190505b919050565b828054600181600116156101000203166002900490600052602060002090601f016020900481019282601f106200177b57805160ff1916838001178555620017ac565b82800160010185558215620017ac579182015b82811115620017ab5782518255916020019190600101906200178e565b5b509050620017bb919062001813565b5090565b60e060405190810160405280600061ffff168152602001600060ff168152602001600060ff168152602001600060ff168152602001600060ff168152602001600060ff168152602001600060ff1681525090565b6200183891905b80821115620018345760008160009055506001016200181a565b5090565b90565b6125e0806200184b6000396000f3006080604052600436106100e6576000357c0100000000000000000000000000000000000000000000000000000000900463ffffffff168063078e84c3146100eb5780630cac2c6e1461019157806311c5c1fb146102215780631c3cecef1461028e578063355c91dd1461031e57806388e9ccce146103ae5780638e6b6c201461043e578063af4b7f14146104fa578063bf65d49214610511578063cb3805eb146105a1578063d00e6ffd1461060e578063dc6a65b914610639578063e046c4dc146106c9578063e22cbac6146106e0578063f1b6dccd14610770578063f7089185146107a9575b600080fd5b3480156100f757600080fd5b5061011660048036038101908080359060200190929190505050610839565b6040518080602001828103825283818151815260200191508051906020019080838360005b8381101561015657808201518184015260208101905061013b565b50505050905090810190601f1680156101835780820380516001836020036101000a031916815260200191505b509250505060405180910390f35b34801561019d57600080fd5b506101a6610993565b6040518080602001828103825283818151815260200191508051906020019080838360005b838110156101e65780820151818401526020810190506101cb565b50505050905090810190601f1680156102135780820380516001836020036101000a031916815260200191505b509250505060405180910390f35b34801561022d57600080fd5b5061024c60048036038101908080359060200190929190505050610a35565b604051808273ffffffffffffffffffffffffffffffffffffffff1673ffffffffffffffffffffffffffffffffffffffff16815260200191505060405180910390f35b34801561029a57600080fd5b506102a3610b17565b6040518080602001828103825283818151815260200191508051906020019080838360005b838110156102e35780820151818401526020810190506102c8565b50505050905090810190601f1680156103105780820380516001836020036101000a031916815260200191505b509250505060405180910390f35b34801561032a57600080fd5b50610333610bb5565b6040518080602001828103825283818151815260200191508051906020019080838360005b83811015610373578082015181840152602081019050610358565b50505050905090810190601f1680156103a05780820380516001836020036101000a031916815260200191505b509250505060405180910390f35b3480156103ba57600080fd5b506103c3610c53565b6040518080602001828103825283818151815260200191508051906020019080838360005b838110156104035780820151818401526020810190506103e8565b50505050905090810190601f1680156104305780820380516001836020036101000a031916815260200191505b509250505060405180910390f35b34801561044a57600080fd5b5061047f600480360381019080803573ffffffffffffffffffffffffffffffffffffffff169060200190929190505050610cf1565b6040518080602001828103825283818151815260200191508051906020019080838360005b838110156104bf5780820151818401526020810190506104a4565b50505050905090810190601f1680156104ec5780820380516001836020036101000a031916815260200191505b509250505060405180910390f35b34801561050657600080fd5b5061050f61123b565b005b34801561051d57600080fd5b5061052661123d565b6040518080602001828103825283818151815260200191508051906020019080838360005b8381101561056657808201518184015260208101905061054b565b50505050905090810190601f1680156105935780820380516001836020036101000a031916815260200191505b509250505060405180910390f35b3480156105ad57600080fd5b506105cc600480360381019080803590602001909291905050506112db565b604051808273ffffffffffffffffffffffffffffffffffffffff1673ffffffffffffffffffffffffffffffffffffffff16815260200191505060405180910390f35b34801561061a57600080fd5b5061062361138d565b6040518082815260200191505060405180910390f35b34801561064557600080fd5b5061064e611397565b6040518080602001828103825283818151815260200191508051906020019080838360005b8381101561068e578082015181840152602081019050610673565b50505050905090810190601f1680156106bb5780820380516001836020036101000a031916815260200191505b509250505060405180910390f35b3480156106d557600080fd5b506106de611439565b005b3480156106ec57600080fd5b506106f561145e565b6040518080602001828103825283818151815260200191508051906020019080838360005b8381101561073557808201518184015260208101905061071a565b50505050905090810190601f1680156107625780820380516001836020036101000a031916815260200191505b509250505060405180910390f35b34801561077c57600080fd5b506107856114fc565b6040518082600281111561079557fe5b60ff16815260200191505060405180910390f35b3480156107b557600080fd5b506107be61150e565b6040518080602001828103825283818151815260200191508051906020019080838360005b838110156107fe5780820151818401526020810190506107e3565b50505050905090810190601f16801561082b5780820380516001836020036101000a031916815260200191505b509250505060405180910390f35b6060600754821015156108da576040517f08c379a00000000000000000000000000000000000000000000000000000000081526004018080602001828103825260318152602001807f496e6465782070617373656420746f204765745265636569707444544174496e81526020017f64657820697320746f6f206c617267652e00000000000000000000000000000081525060400191505060405180910390fd5b600f828154811015156108e957fe5b906000526020600020018054600181600116156101000203166002900480601f0160208091040260200160405190810160405280929190818152602001828054600181600116156101000203166002900480156109875780601f1061095c57610100808354040283529160200191610987565b820191906000526020600020905b81548152906001019060200180831161096a57829003601f168201915b50505050509050919050565b606060098054600181600116156101000203166002900480601f016020809104026020016040519081016040528092919081815260200182805460018160011615610100020316600290048015610a2b5780601f10610a0057610100808354040283529160200191610a2b565b820191906000526020600020905b815481529060010190602001808311610a0e57829003601f168201915b5050505050905090565b600060075482101515610ad6576040517f08c379a00000000000000000000000000000000000000000000000000000000081526004018080602001828103825260368152602001807f496e6465782070617373656420746f204765745265636569707441646472657381526020017f734174496e64657820697320746f6f206c617267652e0000000000000000000081525060400191505060405180910390fd5b600d82815481101515610ae557fe5b9060005260206000200160009054906101000a900473ffffffffffffffffffffffffffffffffffffffff169050919050565b60048054600181600116156101000203166002900480601f016020809104026020016040519081016040528092919081815260200182805460018160011615610100020316600290048015610bad5780601f10610b8257610100808354040283529160200191610bad565b820191906000526020600020905b815481529060010190602001808311610b9057829003601f168201915b505050505081565b60018054600181600116156101000203166002900480601f016020809104026020016040519081016040528092919081815260200182805460018160011615610100020316600290048015610c4b5780601f10610c2057610100808354040283529160200191610c4b565b820191906000526020600020905b815481529060010190602001808311610c2e57829003601f168201915b505050505081565b60068054600181600116156101000203166002900480601f016020809104026020016040519081016040528092919081815260200182805460018160011615610100020316600290048015610ce95780601f10610cbe57610100808354040283529160200191610ce9565b820191906000526020600020905b815481529060010190602001808311610ccc57829003601f168201915b505050505081565b6060610d03610cfe6115ac565b61178b565b9050600280811115610d1157fe5b6000809054906101000a900460ff166002811115610d2b57fe5b14151515610dc7576040517f08c379a000000000000000000000000000000000000000000000000000000000815260040180806020018281038252602d8152602001807f526563656970742063616e6e6f74206265206372656174656420666f7220612081526020017f64656c657465642066696c652e0000000000000000000000000000000000000081525060400191505060405180910390fd5b610dd082611c54565b151515610e6b576040517f08c379a000000000000000000000000000000000000000000000000000000000815260040180806020018281038252603f8152602001807f5468697320636f6e747261637420616464726573732063616e6e6f742062652081526020017f7265676973746572656420746f2061207365636f6e6420726563656970742e0081525060400191505060405180910390fd5b81600c60008473ffffffffffffffffffffffffffffffffffffffff1673ffffffffffffffffffffffffffffffffffffffff16815260200190815260200160002060000160006101000a81548173ffffffffffffffffffffffffffffffffffffffff021916908373ffffffffffffffffffffffffffffffffffffffff16021790555080600c60008473ffffffffffffffffffffffffffffffffffffffff1673ffffffffffffffffffffffffffffffffffffffff1681526020019081526020016000206001019080519060200190610f429291906124bb565b506001600d8390806001815401808255809150509060018203906000526020600020016000909192909190916101000a81548173ffffffffffffffffffffffffffffffffffffffff021916908373ffffffffffffffffffffffffffffffffffffffff16021790555003600c60008473ffffffffffffffffffffffffffffffffffffffff1673ffffffffffffffffffffffffffffffffffffffff1681526020019081526020016000206002018190555081600e826040518082805190602001908083835b60208310151561102a5780518252602082019150602081019050602083039250611005565b6001836020036101000a038019825116818451168082178552505050505050905001915050908152602001604051809103902060000160006101000a81548173ffffffffffffffffffffffffffffffffffffffff021916908373ffffffffffffffffffffffffffffffffffffffff16021790555080600e826040518082805190602001908083835b6020831015156110d757805182526020820191506020810190506020830392506110b2565b6001836020036101000a038019825116818451168082178552505050505050905001915050908152602001604051809103902060010190805190602001906111209291906124bb565b506001600f8290806001815401808255809150509060018203906000526020600020016000909192909190915090805190602001906111609291906124bb565b5003600e826040518082805190602001908083835b60208310151561119a5780518252602082019150602081019050602083039250611175565b6001836020036101000a03801982511681845116808217855250505050505090500191505090815260200160405180910390206002018190555060076000815460010191905081905550600160028111156111f157fe5b6000809054906101000a900460ff16600281111561120b57fe5b1415156112365760016000806101000a81548160ff0219169083600281111561123057fe5b02179055505b919050565b565b60028054600181600116156101000203166002900480601f0160208091040260200160405190810160405280929190818152602001828054600181600116156101000203166002900480156112d35780601f106112a8576101008083540402835291602001916112d3565b820191906000526020600020905b8154815290600101906020018083116112b657829003601f168201915b505050505081565b6000808211151561137a576040517f08c379a00000000000000000000000000000000000000000000000000000000081526004018080602001828103825260358152602001807f496e6465782070617373656420746f204765745265636569707441646472657381526020017f734265666f726520697320746f6f20736d616c6c2e000000000000000000000081525060400191505060405180910390fd5b61138660018303610a35565b9050919050565b6000600754905090565b606060088054600181600116156101000203166002900480601f01602080910402602001604051908101604052809291908181526020018280546001816001161561010002031660029004801561142f5780601f106114045761010080835404028352916020019161142f565b820191906000526020600020905b81548152906001019060200180831161141257829003601f168201915b5050505050905090565b60026000806101000a81548160ff0219169083600281111561145757fe5b0217905550565b60038054600181600116156101000203166002900480601f0160208091040260200160405190810160405280929190818152602001828054600181600116156101000203166002900480156114f45780601f106114c9576101008083540402835291602001916114f4565b820191906000526020600020905b8154815290600101906020018083116114d757829003601f168201915b505050505081565b6000809054906101000a900460ff1681565b60058054600181600116156101000203166002900480601f0160208091040260200160405190810160405280929190818152602001828054600181600116156101000203166002900480156115a45780601f10611579576101008083540402835291602001916115a4565b820191906000526020600020905b81548152906001019060200180831161158757829003601f168201915b505050505081565b6115b461253b565b6000806000806000429450600093506115cc85611d1e565b866000019061ffff16908161ffff16815250506115ee6107b261ffff16611dc9565b6115ff876000015161ffff16611dc9565b039250826301e285000284019350826107b287600001510361ffff16036301e1338002840193506064866000015161ffff1681151561163a57fe5b06866020019060ff16908160ff1681525050600191505b600c8260ff161115156116a95761166c828760000151611e02565b60ff16620151800290508484820111156116975781866040019060ff16908160ff16815250506116a9565b80840193508180600101925050611651565b600191505b6116c086604001518760000151611e02565b60ff168260ff16111515611707578484620151800111156116f25781866060019060ff16908160ff1681525050611707565b620151808401935081806001019250506116ae565b6018603c808781151561171657fe5b0481151561172057fe5b0481151561172a57fe5b06866080019060ff16908160ff1681525050603c808681151561174957fe5b0481151561175357fe5b068660a0019060ff16908160ff1681525050603c8581151561177157fe5b068660c0019060ff16908160ff1681525050505050505090565b606080606080606080600a876040015160ff16101561182c576118256040805190810160405280600181526020017f30000000000000000000000000000000000000000000000000000000000000008152506117ed896040015160ff16611ece565b602060405190810160405280600081525060206040519081016040528060008152506020604051908101604052806000815250612025565b915061183f565b61183c876040015160ff16611ece565b91505b600a876060015160ff1610156118d7576118d06040805190810160405280600181526020017f3000000000000000000000000000000000000000000000000000000000000000815250611898896060015160ff16611ece565b602060405190810160405280600081525060206040519081016040528060008152506020604051908101604052806000815250612025565b90506118ea565b6118e7876060015160ff16611ece565b90505b600a876080015160ff1610156119825761197b6040805190810160405280600181526020017f3000000000000000000000000000000000000000000000000000000000000000815250611943896080015160ff16611ece565b602060405190810160405280600081525060206040519081016040528060008152506020604051908101604052806000815250612025565b9450611995565b611992876080015160ff16611ece565b94505b600a8760a0015160ff161015611a2d57611a266040805190810160405280600181526020017f30000000000000000000000000000000000000000000000000000000000000008152506119ee8960a0015160ff16611ece565b602060405190810160405280600081525060206040519081016040528060008152506020604051908101604052806000815250612025565b9350611a40565b611a3d8760a0015160ff16611ece565b93505b600a8760c0015160ff161015611ad857611ad16040805190810160405280600181526020017f3000000000000000000000000000000000000000000000000000000000000000815250611a998960c0015160ff16611ece565b602060405190810160405280600081525060206040519081016040528060008152506020604051908101604052806000815250612025565b9250611aeb565b611ae88760c0015160ff16611ece565b92505b611c48611b74836040805190810160405280600181526020017f2f00000000000000000000000000000000000000000000000000000000000000815250846040805190810160405280600181526020017f2f00000000000000000000000000000000000000000000000000000000000000815250611b6f8d6020015160ff16611ece565b612025565b6040805190810160405280600181526020017f2000000000000000000000000000000000000000000000000000000000000000815250611c21886040805190810160405280600181526020017f3a00000000000000000000000000000000000000000000000000000000000000815250896040805190810160405280600181526020017f3a000000000000000000000000000000000000000000000000000000000000008152508a612025565b60206040519081016040528060008152506020604051908101604052806000815250612025565b95505050505050919050565b600080600d805490501415611c6c5760009050611d19565b8173ffffffffffffffffffffffffffffffffffffffff16600d600c60008573ffffffffffffffffffffffffffffffffffffffff1673ffffffffffffffffffffffffffffffffffffffff16815260200190815260200160002060020154815481101515611cd457fe5b9060005260206000200160009054906101000a900473ffffffffffffffffffffffffffffffffffffffff1673ffffffffffffffffffffffffffffffffffffffff161490505b919050565b600080600080600092506301e1338085811515611d3757fe5b046107b261ffff16019150611d516107b261ffff16611dc9565b611d5e8361ffff16611dc9565b039050806301e285000283019250806107b2830361ffff16036301e1338002830192505b84831115611dbe57611d966001830361243a565b15611da9576301e2850083039250611db3565b6301e13380830392505b600182039150611d82565b819350505050919050565b600060018203915061019082811515611dde57fe5b04606483811515611deb57fe5b04600484811515611df857fe5b0403019050919050565b600060018360ff161480611e19575060038360ff16145b80611e27575060058360ff16145b80611e35575060078360ff16145b80611e43575060088360ff16145b80611e515750600a8360ff16145b80611e5f5750600c8360ff16145b15611e6d57601f9050611ec8565b60048360ff161480611e82575060068360ff16145b80611e90575060098360ff16145b80611e9e5750600b8360ff16145b15611eac57601e9050611ec8565b611eb58261243a565b15611ec357601d9050611ec8565b601c90505b92915050565b60606000806060600080861415611f1c576040805190810160405280600181526020017f3000000000000000000000000000000000000000000000000000000000000000815250945061201c565b8593505b600084141515611f46578280600101935050600a84811515611f3e57fe5b049350611f20565b826040519080825280601f01601f191660200182016040528015611f795781602001602082028038833980820191505090505b5091506001830390505b60008614151561201857600a86811515611f9957fe5b066030017f010000000000000000000000000000000000000000000000000000000000000002828280600190039350815181101515611fd457fe5b9060200101907effffffffffffffffffffffffffffffffffffffffffffffffffffffffffffff1916908160001a905350600a8681151561201057fe5b049550611f83565b8194505b50505050919050565b6060806060806060806060806000808e98508d97508c96508b95508a94508451865188518a518c51010101016040519080825280601f01601f1916602001820160405280156120835781602001602082028038833980820191505090505b50935083925060009150600090505b88518110156121455788818151811015156120a957fe5b9060200101517f010000000000000000000000000000000000000000000000000000000000000090047f010000000000000000000000000000000000000000000000000000000000000002838380600101945081518110151561210857fe5b9060200101907effffffffffffffffffffffffffffffffffffffffffffffffffffffffffffff1916908160001a9053508080600101915050612092565b600090505b87518110156121fd57878181518110151561216157fe5b9060200101517f010000000000000000000000000000000000000000000000000000000000000090047f01000000000000000000000000000000000000000000000000000000000000000283838060010194508151811015156121c057fe5b9060200101907effffffffffffffffffffffffffffffffffffffffffffffffffffffffffffff1916908160001a905350808060010191505061214a565b600090505b86518110156122b557868181518110151561221957fe5b9060200101517f010000000000000000000000000000000000000000000000000000000000000090047f010000000000000000000000000000000000000000000000000000000000000002838380600101945081518110151561227857fe5b9060200101907effffffffffffffffffffffffffffffffffffffffffffffffffffffffffffff1916908160001a9053508080600101915050612202565b600090505b855181101561236d5785818151811015156122d157fe5b9060200101517f010000000000000000000000000000000000000000000000000000000000000090047f010000000000000000000000000000000000000000000000000000000000000002838380600101945081518110151561233057fe5b9060200101907effffffffffffffffffffffffffffffffffffffffffffffffffffffffffffff1916908160001a90535080806001019150506122ba565b600090505b845181101561242557848181518110151561238957fe5b9060200101517f010000000000000000000000000000000000000000000000000000000000000090047f01000000000000000000000000000000000000000000000000000000000000000283838060010194508151811015156123e857fe5b9060200101907effffffffffffffffffffffffffffffffffffffffffffffffffffffffffffff1916908160001a9053508080600101915050612372565b82995050505050505050505095945050505050565b60008060048361ffff1681151561244d57fe5b0661ffff1614151561246257600090506124b6565b600060648361ffff1681151561247457fe5b0661ffff1614151561248957600190506124b6565b60006101908361ffff1681151561249c57fe5b0661ffff161415156124b157600090506124b6565b600190505b919050565b828054600181600116156101000203166002900490600052602060002090601f016020900481019282601f106124fc57805160ff191683800117855561252a565b8280016001018555821561252a579182015b8281111561252957825182559160200191906001019061250e565b5b509050612537919061258f565b5090565b60e060405190810160405280600061ffff168152602001600060ff168152602001600060ff168152602001600060ff168152602001600060ff168152602001600060ff168152602001600060ff1681525090565b6125b191905b808211156125ad576000816000905550600101612595565b5090565b905600a165627a7a723058206eebfd951dfa6b5541a62ff260d161b25513d29c380405c5af0200e3fe03550a0029",
  "source": "\n// adapted from github.com/Azure-Samples/blockchain-devkit/blob/master/accelerators\n// adapted by Alexandria Pawlik, June 2019\n\n\npragma solidity ^0.4.24;\n\n\nimport \"./FileRegistry.sol\";\n\n\n// FILE CONTRACT\n/////////////////////////////////////////////////////////////////\n\n\ncontract File\n{\n  ///////////////// public data\n\n\n\tenum StateType { Original, Active, Deleted }\n\tStateType public State;\n\n  string public RegistryName;  // name of the registry that the file is located in\t\n\n  string public FileName;  // name of the file in OneDrive\n  string public FileId; // identifier for the file in OneDrive, stored off chain\n  string public ContentType; // \n  string public Etag; // \n  string public UploadDateTime; // MM/DD/YY HH:MM:SS\n\n\n  ///////////////// internal data\n\n\n  uint internal NumReceipts; // number of times file has been verified, length of history array\n  string internal FileHash; // sha256 hash of original file content\n\tstring internal MetadataHash; // sha256 hash of original file metadata\n\n  // parent registry\n\tFileRegistry internal MyFileRegistry;\n\taddress internal RegistryAddress;\n\n\tstruct ReceiptStruct \n\t{ \n\t\taddress ReceiptContractAddress;\n\t\tstring VerificationDateTime;\n\t\tuint Index;\n\t}\n\n\t// history lookup\n\tmapping(address => ReceiptStruct) internal HistoryAddressLookup;\n\taddress[] internal ReceiptAddressIndex;\n\tmapping(string => ReceiptStruct) internal HistoryDTLookup;\n\tstring[] internal VerificationDateTimeIndex;\n  \n\n  /////////////////\n\n\n\tconstructor (address registryAddress, string filename, string fileId, string fileHash, \n\t\tstring metadataHash, string contentType, string etag) \n\tpublic\n\t{\n\t\t// file data\n\t\tFileName = filename;\n    FileId = fileId;\n    FileHash = fileHash;\n    MetadataHash = metadataHash;\n    ContentType = contentType;\n    Etag = etag;\n    UploadDateTime = dtToString(parseTimestamp());\n\n\t\t// tracking\n\t\tNumReceipts = 0;\n\n\t\t// registry\n\t\tRegistryAddress = registryAddress;\n\t\tMyFileRegistry = FileRegistry(RegistryAddress);\n    RegistryName = MyFileRegistry.Name();\n\n\t\t// if file id is already registered\n\t\t//if (MyFileRegistry.IsRegisteredFileId(stringToBytes32(FileId))) revert(\"A file with this id has already been registered.\");\n\t\trequire(!MyFileRegistry.IsRegisteredFileId(FileId), \"A file with this id has already been registered.\");\n\n\t\t// register file\n    MyFileRegistry.RegisterFile(address(this), FileId);\n   \n    State = StateType.Original;\n\t}\n\n\n  ///////////////// accessible by blockchain users\n\n\n  function Delete() \n  external \n  {\n    State = StateType.Deleted;\n  }\n\n  // allows workbench users to refresh displayed data\n  function Update()\n  external \n\tpure {}\n\n\n  ///////////////// called by members of receipt array\n\n\n\t// create a new verification receipt for this file\n\tfunction AddReceipt(address ReceiptContractAddress) \n  external\n\treturns (string ReceiptDT)\n  {\n\t\t// return date and time of receipt creation\n\t\tReceiptDT = dtToString(parseTimestamp());\n\n\t\t// check that file is still in use\n\t\t// if (State == StateType.Deleted) revert(\"Receipt cannot be created for a deleted file.\");\n\t\t// if (IsVerifiedReceiptContractAddress(ReceiptContractAddress)) revert(\"This contract address cannot be registered to a second receipt.\"); \n\t\trequire(State != StateType.Deleted, \"Receipt cannot be created for a deleted file.\");\n\t\trequire(!IsVerifiedReceiptContractAddress(ReceiptContractAddress), \"This contract address cannot be registered to a second receipt.\");\n\n\t\t// add address lookups\n    HistoryAddressLookup[ReceiptContractAddress].ReceiptContractAddress = ReceiptContractAddress;\n    HistoryAddressLookup[ReceiptContractAddress].VerificationDateTime = ReceiptDT;\n    HistoryAddressLookup[ReceiptContractAddress].Index = ReceiptAddressIndex.push(ReceiptContractAddress)-1;\n   \n\t\t// add datetime lookups \n    HistoryDTLookup[ReceiptDT].ReceiptContractAddress = ReceiptContractAddress;\n    HistoryDTLookup[ReceiptDT].VerificationDateTime = ReceiptDT;\n    HistoryDTLookup[ReceiptDT].Index = VerificationDateTimeIndex.push(ReceiptDT)-1;\n\n\t\t// increase total number of receipts\n\t\t++NumReceipts;\n\n    // check if this was the first verification\n\t\tif (State != StateType.Active) State = StateType.Active;\n  }\n\n\t// gets the verification date and time of the reciept at the given index\n\tfunction GetReceiptDTAtIndex(uint idx)\n\texternal\n\tview\n\treturns (string at)\n\t{\n\t\t// check bounds\n\t\trequire(idx < NumReceipts, \"Index passed to GetReceiptDTAtIndex is too large.\");\n\n\t\tat = VerificationDateTimeIndex[idx];\n\t}\n\n\t// gets the address of the receipt contract that is in \n\t// the history lookup arrays one index before idx\n\t// does NOT ignore invalidated receipts\n\t// requires idx > 0\n\tfunction GetReceiptAddressBefore(uint idx)\n\texternal\n\tview\n\treturns (address last)\n\t{\n\t\t// check lower bound\n\t\trequire(idx > 0, \"Index passed to GetReceiptAddressBefore is too small.\");\n\n\t\tlast = GetReceiptAddressAtIndex(idx - 1);\n\t}\n\n\t// gets the address of the receipt at the given index\n\t// does NOT ignore invalidated receipts\n\tfunction GetReceiptAddressAtIndex(uint idx)\n\tpublic\n\tview\n\treturns (address at)\n\t{\n\t\t// check upper bound (lower bound is certain with uint data type)\n\t\trequire(idx < NumReceipts, \"Index passed to GetReceiptAddressAtIndex is too large.\");\n\n\t\tat = ReceiptAddressIndex[idx];\n\t}\n\n\t// get function for internal variable\n\tfunction GetNumberOfReceipts() \n\texternal\n\tview\n\treturns (uint)\n\t{\n\t\treturn NumReceipts;\n\t}\n\n\t// get function for internal variable\n\tfunction GetFileHash()\n\texternal\n\tview\n\treturns (string)\n\t{\n\t\treturn FileHash;\n\t}\n\n\t// get function for internal variable\n\tfunction GetMetadataHash()\n\texternal\n\tview\n\treturns (string)\n\t{\n\t\treturn MetadataHash;\n\t}\n\n\n  ///////////////// helper functions\n\n\n\t// lookup to see if a contract address for a receipt contract is already registered\n  function IsVerifiedReceiptContractAddress(address ReceiptContractAddress)\n  internal \n  view\n  returns(bool isVerified) \n  {\n    if(ReceiptAddressIndex.length == 0) return false;\n  \n    return (ReceiptAddressIndex[HistoryAddressLookup[ReceiptContractAddress].Index] \n\t\t\t== ReceiptContractAddress);\n  }\n\n\tfunction stringToBytes32(string memory source) \n  internal \n  pure \n  returns(bytes32 result) \n  {\n    bytes memory tempEmptyStringTest = bytes(source);\n    if (tempEmptyStringTest.length == 0) \n    {\n      return 0x0;\n    }\n\n    assembly \n    {\n      result := mload(add(source, 32))\n    }\n  }\n\n\tfunction compareStrings(string a, string b) \n  internal \n  pure \n  returns(bool)\n  {\n    return keccak256(bytes(a)) == keccak256(bytes(b));\n  }\n\n  function stringToAddress(string _a) \n  internal \n  pure \n  returns(address)\n  {\n    bytes memory tmp = bytes(_a);\n    uint160 iaddr = 0;\n    uint160 b1;\n    uint160 b2;\n    \n    for (uint i=2; i<2+2*20; i+=2)\n    {\n      iaddr *= 256;\n      b1 = uint160(tmp[i]);\n      b2 = uint160(tmp[i+1]);\n      if ((b1 >= 97)&&(b1 <= 102)) b1 -= 87;\n      else if ((b1 >= 48)&&(b1 <= 57)) b1 -= 48;\n      if ((b2 >= 97)&&(b2 <= 102)) b2 -= 87;\n      else if ((b2 >= 48)&&(b2 <= 57)) b2 -= 48;\n      iaddr += (b1*16+b2);\n    }\n\n    return address(iaddr);\n  }\n\n\n  //-----------------------------------------------------\n  // Type Manipulation Supporting Functions\n  // adapted from github.com/oraclize/ethereum-api\n  //-----------------------------------------------------\n\n\n  function uintToString(uint i) \n  internal \n  pure \n  returns (string)\n  {\n    if (i == 0) return \"0\";\n\n    uint j = i;\n    uint length;\n    while (j != 0)\n    {\n      length++;\n      j /= 10;\n    }\n\n    bytes memory bstr = new bytes(length);\n    uint k = length - 1;\n    while (i != 0)\n    {\n      bstr[k--] = byte(48 + i % 10);\n      i /= 10;\n    }\n\n    return string(bstr);\n  }\n\n  function strConcat(string _a, string _b, string _c, string _d, string _e) \n  internal \n  pure\n  returns (string)\n  {\n    bytes memory _ba = bytes(_a);\n    bytes memory _bb = bytes(_b);\n    bytes memory _bc = bytes(_c);\n    bytes memory _bd = bytes(_d);\n    bytes memory _be = bytes(_e);\n\n    string memory abcde = new string(_ba.length + _bb.length + _bc.length + _bd.length + _be.length);\n    bytes memory babcde = bytes(abcde);\n\n    uint k = 0;\n\n    for (uint i = 0; i < _ba.length; i++) babcde[k++] = _ba[i];\n    for (i = 0; i < _bb.length; i++) babcde[k++] = _bb[i];\n    for (i = 0; i < _bc.length; i++) babcde[k++] = _bc[i];\n    for (i = 0; i < _bd.length; i++) babcde[k++] = _bd[i];\n    for (i = 0; i < _be.length; i++) babcde[k++] = _be[i];\n    \n    return string(babcde);\n  }\n\n\n  //-----------------------------------------------------\n  // DateTime Supporting Functions\n  // adapted from github.com/pipermerriam/ethereum-datetime/blob/master/contracts/DateTime.sol\n  //-----------------------------------------------------\n\n\n  uint constant DAY_IN_SECONDS = 86400;\n  uint constant YEAR_IN_SECONDS = 31536000;\n  uint constant LEAP_YEAR_IN_SECONDS = 31622400;\n\n  uint16 constant ORIGIN_YEAR = 1970;\n\n  struct _datetime \n  {\n    uint16 year;\n    uint8 year2;\n    uint8 month;\n    uint8 day;\n    uint8 hour;\n    uint8 minute;\n    uint8 second;\n  }\n\n  // returns current timestamp as string in form MM/DD/YY HH:MM:SS\n  function parseTimestamp() \n  internal \n  view \n  returns (_datetime dt) \n  {\n    uint timestamp = now;\n    uint secondsAccountedFor = 0;\n    uint buf;\n\n    uint8 i;\n\n    // Year\n    dt.year = getYear(timestamp);\n    buf = leapYearsBefore(dt.year) - leapYearsBefore(ORIGIN_YEAR);\n\n    secondsAccountedFor += LEAP_YEAR_IN_SECONDS * buf;\n    secondsAccountedFor += YEAR_IN_SECONDS * (dt.year - ORIGIN_YEAR - buf);\n    dt.year2 = uint8(dt.year % 100);\n\n    // Month\n    uint secondsInMonth;\n    for (i = 1; i <= 12; i++) \n    {\n      secondsInMonth = DAY_IN_SECONDS * getDaysInMonth(i, dt.year);\n      if (secondsInMonth + secondsAccountedFor > timestamp) \n      {\n        dt.month = i;\n        break;\n      }\n      secondsAccountedFor += secondsInMonth;\n    }\n\n    // Day\n    for (i = 1; i <= getDaysInMonth(dt.month, dt.year); i++) \n    {\n      if (DAY_IN_SECONDS + secondsAccountedFor > timestamp) \n      {\n        dt.day = i;\n        break;\n      }\n      secondsAccountedFor += DAY_IN_SECONDS;\n    }\n\n    // Hour\n    dt.hour = uint8((timestamp / 60 / 60) % 24);\n\n    // Minute\n    dt.minute = uint8((timestamp / 60) % 60);\n\n    // Second\n    dt.second = uint8(timestamp % 60);\n  }\n\n  function dtToString(_datetime dt)\n  internal\n  pure\n  returns (string datetime)\n  {\n    string memory hourStr;\n    string memory minuteStr;\n    string memory secondStr;\n    string memory monthStr;\n    string memory dayStr;\n\n    // add filler 0s\n    if (dt.month < 10)\n    {\n      monthStr = strConcat(\"0\", uintToString(dt.month), \"\",\"\", \"\");\n    } else\n    {\n      monthStr = uintToString(dt.month);\n    }\n    if (dt.day < 10)\n    {\n      dayStr = strConcat(\"0\", uintToString(dt.day), \"\",\"\", \"\");\n    } else\n    {\n      dayStr = uintToString(dt.day);\n    }\n    if (dt.hour < 10)\n    {\n      hourStr = strConcat(\"0\", uintToString(dt.hour), \"\",\"\", \"\");\n    } else\n    {\n      hourStr = uintToString(dt.hour);\n    }\n    if (dt.minute < 10)\n    {\n      minuteStr = strConcat(\"0\", uintToString(dt.minute), \"\",\"\", \"\");\n    } else\n    {\n      minuteStr = uintToString(dt.minute);\n    }\n    if (dt.second < 10)\n    {\n      secondStr = strConcat(\"0\", uintToString(dt.second), \"\",\"\", \"\");\n    } else\n    {\n      secondStr = uintToString(dt.second);\n    }\n\n    // convert struct to string\n    datetime = strConcat(\n      strConcat(monthStr, \"/\", dayStr, \"/\", uintToString(dt.year2)), \n      \" \", \n      strConcat(hourStr, \":\", minuteStr, \":\", secondStr), \n      \"\", \"\"\n    );\n  }\n\n  function isLeapYear(uint16 year) \n  internal\n  pure\n  returns (bool) \n  {\n    if (year % 4 != 0) \n    {\n      return false;\n    }\n    if (year % 100 != 0) \n    {\n      return true;\n    }\n    if (year % 400 != 0) \n    {\n      return false;\n    }\n    return true;\n  }\n\n  function leapYearsBefore(uint year) \n  internal \n  pure \n  returns (uint) \n  {\n    year -= 1;\n    return year / 4 - year / 100 + year / 400;\n  }\n\n  function getDaysInMonth(uint8 month, uint16 year) \n  internal\n  pure \n  returns (uint8) \n  {\n    if (month == 1 || month == 3 || month == 5 || month == 7 || month == 8 || month == 10 || month == 12) \n    {\n      return 31;\n    } else if (month == 4 || month == 6 || month == 9 || month == 11) \n    {\n      return 30;\n    } else if (isLeapYear(year)) \n    {\n      return 29;\n    } else \n    {\n      return 28;\n    }\n  }\n\n  function getYear(uint timestamp) \n  internal\n  pure \n  returns (uint16) \n  {\n    uint secondsAccountedFor = 0;\n    uint16 year;\n    uint numLeapYears;\n\n    // Year\n    year = uint16(ORIGIN_YEAR + timestamp / YEAR_IN_SECONDS);\n    numLeapYears = leapYearsBefore(year) - leapYearsBefore(ORIGIN_YEAR);\n\n    secondsAccountedFor += LEAP_YEAR_IN_SECONDS * numLeapYears;\n    secondsAccountedFor += YEAR_IN_SECONDS * (year - ORIGIN_YEAR - numLeapYears);\n\n    while (secondsAccountedFor > timestamp) \n    {\n      if (isLeapYear(uint16(year - 1))) \n      {\n        secondsAccountedFor -= LEAP_YEAR_IN_SECONDS;\n      } else \n      {\n        secondsAccountedFor -= YEAR_IN_SECONDS;\n      }\n      year -= 1;\n    }\n    return year;\n  } \n\n\n\t///////////////// get functions for testing\n\n\n\t// function GetIndexOfReceipt(address receipt)\n  // external\n  // view\n  // returns (uint idx)\n  // {\n  //   idx = HistoryAddressLookup[receipt].Index;\n  // }\n\n\t// function GetAddress()\n\t// external\n\t// view\n\t// returns (address)\n\t// {\n\t// \treturn address(this);\n\t// }\n\n\t// function NotDeleted()\n\t// external\n\t// view\n\t// returns (bool)\n\t// {\n\t// \treturn (State != StateType.Deleted);\n\t// }\n\n}",
  "sourcePath": "/Users/alexandriapawlik/Documents/Dev/AFGroup/fileVerificationTruffle/contracts/File.sol",
  "compiler": {
    "name": "solc",
    "version": "0.4.24+commit.e67f0147.Emscripten.clang"
  },
  "schemaVersion": "3.0.11",
  "updatedAt": "2019-07-25T13:40:57.387Z",
  "devdoc": {
    "methods": {}
  },
  "userdoc": {
    "methods": {
      "AddReceipt(address)": {
        "notice": "////////////// called by members of receipt array"
      },
      "Delete()": {
        "notice": "////////////// accessible by blockchain users"
      }
    }
  }
}