{
  "contractName": "FileRegistry",
  "abi": [
    {
      "constant": true,
      "inputs": [],
      "name": "Name",
      "outputs": [
        {
          "name": "",
          "type": "string"
        }
      ],
      "payable": false,
      "stateMutability": "view",
      "type": "function"
    },
    {
      "constant": true,
      "inputs": [],
      "name": "Description",
      "outputs": [
        {
          "name": "",
          "type": "string"
        }
      ],
      "payable": false,
      "stateMutability": "view",
      "type": "function"
    },
    {
      "constant": true,
      "inputs": [],
      "name": "State",
      "outputs": [
        {
          "name": "",
          "type": "uint8"
        }
      ],
      "payable": false,
      "stateMutability": "view",
      "type": "function"
    },
    {
      "inputs": [
        {
          "name": "name",
          "type": "string"
        },
        {
          "name": "description",
          "type": "string"
        }
      ],
      "payable": false,
      "stateMutability": "nonpayable",
      "type": "constructor"
    },
    {
      "constant": false,
      "inputs": [],
      "name": "CloseRegistry",
      "outputs": [],
      "payable": false,
      "stateMutability": "nonpayable",
      "type": "function"
    },
    {
      "constant": false,
      "inputs": [
        {
          "name": "FileContractAddress",
          "type": "address"
        },
        {
          "name": "FileId",
          "type": "string"
        }
      ],
      "name": "RegisterFile",
      "outputs": [],
      "payable": false,
      "stateMutability": "nonpayable",
      "type": "function"
    },
    {
      "constant": true,
      "inputs": [
        {
          "name": "FileId",
          "type": "string"
        }
      ],
      "name": "IsRegisteredFileId",
      "outputs": [
        {
          "name": "",
          "type": "bool"
        }
      ],
      "payable": false,
      "stateMutability": "view",
      "type": "function"
    },
    {
      "constant": true,
      "inputs": [
        {
          "name": "FileId",
          "type": "string"
        }
      ],
      "name": "GetFileAddressGivenId",
      "outputs": [
        {
          "name": "",
          "type": "address"
        }
      ],
      "payable": false,
      "stateMutability": "view",
      "type": "function"
    },
    {
      "constant": true,
      "inputs": [],
      "name": "GetNumberOfFiles",
      "outputs": [
        {
          "name": "",
          "type": "uint256"
        }
      ],
      "payable": false,
      "stateMutability": "view",
      "type": "function"
    }
  ],
  "bytecode": "0x608060405234801561001057600080fd5b50604051610e6a380380610e6a83398101806040528101908080518201929190602001805182019291905050508160019080519060200190610053929190610095565b50806002908051906020019061006a929190610095565b5060008060006101000a81548160ff0219169083600181111561008957fe5b0217905550505061013a565b828054600181600116156101000203166002900490600052602060002090601f016020900481019282601f106100d657805160ff1916838001178555610104565b82800160010185558215610104579182015b828111156101035782518255916020019190600101906100e8565b5b5090506101119190610115565b5090565b61013791905b8082111561013357600081600090555060010161011b565b5090565b90565b610d21806101496000396000f30060806040526004361061008e576000357c0100000000000000000000000000000000000000000000000000000000900463ffffffff16806313027c96146100935780631b342b1b1461010e57806329d99ba114610139578063346de76d146101945780638052474d146101e75780638191745f146102775780638220dd2114610307578063f1b6dccd1461031e575b600080fd5b34801561009f57600080fd5b506100cc600480360381019080803590602001908201803590602001919091929391929390505050610357565b604051808273ffffffffffffffffffffffffffffffffffffffff1673ffffffffffffffffffffffffffffffffffffffff16815260200191505060405180910390f35b34801561011a57600080fd5b506101236103aa565b6040518082815260200191505060405180910390f35b34801561014557600080fd5b50610192600480360381019080803573ffffffffffffffffffffffffffffffffffffffff1690602001909291908035906020019082018035906020019190919293919293905050506103b7565b005b3480156101a057600080fd5b506101cd6004803603810190808035906020019082018035906020019190919293919293905050506107b2565b604051808215151515815260200191505060405180910390f35b3480156101f357600080fd5b506101fc61093a565b6040518080602001828103825283818151815260200191508051906020019080838360005b8381101561023c578082015181840152602081019050610221565b50505050905090810190601f1680156102695780820380516001836020036101000a031916815260200191505b509250505060405180910390f35b34801561028357600080fd5b5061028c6109d8565b6040518080602001828103825283818151815260200191508051906020019080838360005b838110156102cc5780820151818401526020810190506102b1565b50505050905090810190601f1680156102f95780820380516001836020036101000a031916815260200191505b509250505060405180910390f35b34801561031357600080fd5b5061031c610a76565b005b34801561032a57600080fd5b50610333610a9b565b6040518082600181111561034357fe5b60ff16815260200191505060405180910390f35b60006003838360405180838380828437820191505092505050908152602001604051809103902060000160009054906101000a900473ffffffffffffffffffffffffffffffffffffffff16905092915050565b6000600680549050905090565b600060018111156103c457fe5b6000809054906101000a900460ff1660018111156103de57fe5b141515610479576040517f08c379a00000000000000000000000000000000000000000000000000000000081526004018080602001828103825260348152602001807f46696c652063616e6e6f7420626520616464656420746f20612072656769737481526020017f72792074686174206973206e6f74206f70656e2e00000000000000000000000081525060400191505060405180910390fd5b61048283610aad565b15151561051d576040517f08c379a000000000000000000000000000000000000000000000000000000000815260040180806020018281038252603c8152602001807f5468697320636f6e747261637420616464726573732063616e6e6f742062652081526020017f7265676973746572656420746f2061207365636f6e642066696c652e0000000081525060400191505060405180910390fd5b82600460008573ffffffffffffffffffffffffffffffffffffffff1673ffffffffffffffffffffffffffffffffffffffff16815260200190815260200160002060000160006101000a81548173ffffffffffffffffffffffffffffffffffffffff021916908373ffffffffffffffffffffffffffffffffffffffff1602179055508181600460008673ffffffffffffffffffffffffffffffffffffffff1673ffffffffffffffffffffffffffffffffffffffff16815260200190815260200160002060010191906105ef929190610c50565b50600160058490806001815401808255809150509060018203906000526020600020016000909192909190916101000a81548173ffffffffffffffffffffffffffffffffffffffff021916908373ffffffffffffffffffffffffffffffffffffffff16021790555003600460008573ffffffffffffffffffffffffffffffffffffffff1673ffffffffffffffffffffffffffffffffffffffff16815260200190815260200160002060020181905550826003838360405180838380828437820191505092505050908152602001604051809103902060000160006101000a81548173ffffffffffffffffffffffffffffffffffffffff021916908373ffffffffffffffffffffffffffffffffffffffff160217905550818160038484604051808383808284378201915050925050509081526020016040518091039020600101919061073c929190610c50565b506001600683839091806001815401808255809150509060018203906000526020600020016000909192939091929390919290919250919061077f929190610c50565b50036003838360405180838380828437820191505092505050908152602001604051809103902060020181905550505050565b6000606080600060068054905014156107ce5760009250610932565b84848080601f016020809104026020016040519081016040528093929190818152602001838380828437820191505050505050915060066003836040518082805190602001908083835b60208310151561083d5780518252602082019150602081019050602083039250610818565b6001836020036101000a03801982511681845116808217855250505050505090500191505090815260200160405180910390206002015481548110151561088057fe5b906000526020600020018054600181600116156101000203166002900480601f01602080910402602001604051908101604052809291908181526020018280546001816001161561010002031660029004801561091e5780601f106108f35761010080835404028352916020019161091e565b820191906000526020600020905b81548152906001019060200180831161090157829003601f168201915b5050505050905061092f8183610b77565b92505b505092915050565b60018054600181600116156101000203166002900480601f0160208091040260200160405190810160405280929190818152602001828054600181600116156101000203166002900480156109d05780601f106109a5576101008083540402835291602001916109d0565b820191906000526020600020905b8154815290600101906020018083116109b357829003601f168201915b505050505081565b60028054600181600116156101000203166002900480601f016020809104026020016040519081016040528092919081815260200182805460018160011615610100020316600290048015610a6e5780601f10610a4357610100808354040283529160200191610a6e565b820191906000526020600020905b815481529060010190602001808311610a5157829003601f168201915b505050505081565b60016000806101000a81548160ff02191690836001811115610a9457fe5b0217905550565b6000809054906101000a900460ff1681565b6000806005805490501415610ac55760009050610b72565b8173ffffffffffffffffffffffffffffffffffffffff166005600460008573ffffffffffffffffffffffffffffffffffffffff1673ffffffffffffffffffffffffffffffffffffffff16815260200190815260200160002060020154815481101515610b2d57fe5b9060005260206000200160009054906101000a900473ffffffffffffffffffffffffffffffffffffffff1673ffffffffffffffffffffffffffffffffffffffff161490505b919050565b6000816040518082805190602001908083835b602083101515610baf5780518252602082019150602081019050602083039250610b8a565b6001836020036101000a038019825116818451168082178552505050505050905001915050604051809103902060001916836040518082805190602001908083835b602083101515610c165780518252602082019150602081019050602083039250610bf1565b6001836020036101000a03801982511681845116808217855250505050505090500191505060405180910390206000191614905092915050565b828054600181600116156101000203166002900490600052602060002090601f016020900481019282601f10610c9157803560ff1916838001178555610cbf565b82800160010185558215610cbf579182015b82811115610cbe578235825591602001919060010190610ca3565b5b509050610ccc9190610cd0565b5090565b610cf291905b80821115610cee576000816000905550600101610cd6565b5090565b905600a165627a7a723058205bfe02f61f2dce70186eb5a38739a39dca1ac7780974eb9886b8ac8613a528950029",
  "source": "\n// adapted from github.com/Azure-Samples/blockchain-devkit/blob/master/accelerators\n// adapted by Alexandria Pawlik, June 2019\n\n\npragma solidity ^0.4.24;\n\n\n// FILE REGISTRY CONTRACT\n/////////////////////////////////////////////////////////////////\n\n\ncontract FileRegistry\n{\n\t///////////////// public data\n\n\n\tenum StateType { Open, Closed }\n\tStateType public State;\n\n  string public Name;\n\tstring public Description;\n\n\n  ///////////////// internal data\n\n\n\tstruct FileStruct \n\t{ \n\t\taddress FileContractAddress;\n\t\tstring FileId; \n\t\tuint Index;\n\t}\n\n\t// file tracking\n\tmapping(string => FileStruct) internal FileIdLookup;\n  mapping(address => FileStruct) internal FileContractAddressLookup;\n\taddress[] internal FileAddressIndex;\n\tstring[] internal FileIdIndex;\n\n\n  /////////////////\n\n\n\tconstructor (string name, string description) \n\tpublic\n\t{\n\t\tName = name;\n\t\tDescription = description;\n\t\tState = StateType.Open;\n\t}\n\n\n  ///////////////// accessible by blockchain users\n\n\n\tfunction CloseRegistry() \n\texternal \n\t{\n\t\tState = StateType.Closed;\n\t}\n\n\n  ///////////////// called by members of file array\n\n\n  function RegisterFile(address FileContractAddress, string FileId) \n\texternal\n\t{\n\t\t// if (State != StateType.Open) revert(\"File cannot be added to a registry that is not open.\");\n\t\t// if (IsRegisteredFileContractAddress(FileContractAddress)) revert(\"This contract address cannot be registered to a second file.\"); \n\t\trequire(State == StateType.Open, \"File cannot be added to a registry that is not open.\");\n\t\trequire(!IsRegisteredFileContractAddress(FileContractAddress), \"This contract address cannot be registered to a second file.\");\n\n\t\t// add lookup by address\n\t\tFileContractAddressLookup[FileContractAddress].FileContractAddress = FileContractAddress;\n\t\tFileContractAddressLookup[FileContractAddress].FileId = FileId;\n\t\tFileContractAddressLookup[FileContractAddress].Index = FileAddressIndex.push(FileContractAddress)-1;\n\n\t\t// add look up by reg number\n\t\tFileIdLookup[FileId].FileContractAddress = FileContractAddress;\n\t\tFileIdLookup[FileId].FileId = FileId;\n\t\tFileIdLookup[FileId].Index = FileIdIndex.push(FileId)-1;\n\t}\n\n  // lookup to see if this file is registered\n\tfunction IsRegisteredFileId(string FileId)\n\texternal \n\tview\n\treturns(bool) \n\t{\n\t\tif (FileIdIndex.length == 0) return false;\n\n\t\tstring memory FileIdString = FileId;\n\t\tstring memory FileIdInternalString = FileIdIndex[FileIdLookup[FileIdString].Index];\n\t\treturn (compareStrings(FileIdInternalString, FileIdString));\n\t}\n\n\n  ///////////////// called by receipts\n\n\n  function GetFileAddressGivenId(string FileId)\n  external\n  view\n  returns (address)\n  {\n    return FileIdLookup[FileId].FileContractAddress;\n  }\n\n\n  ///////////////// helper functions\n\n\n\t// lookup to see if a contract address for a File contract is already registered\n\tfunction IsRegisteredFileContractAddress(address FileContractAddress)\n\tinternal\n\tview\n\treturns(bool isRegistered) \n\t{\n\t\tif(FileAddressIndex.length == 0) return false;\n\t\t\t\n\t\treturn (FileAddressIndex[FileContractAddressLookup[FileContractAddress].Index] == FileContractAddress);\n\t}\n\n\tfunction bytes32ToString(bytes32 x)  \n\tinternal \n\tpure \n\treturns(string) \n\t{\n\t\tbytes memory bytesString = new bytes(32);\n\t\tuint charCount = 0;\n\t\tfor (uint j = 0; j < 32; j++) \n\t\t{\n\t\t\tbyte char = byte(bytes32(uint(x) * 2 ** (8 * j)));\n\t\t\tif (char != 0) \n\t\t\t{\n\t\t\t\tbytesString[charCount] = char;\n\t\t\t\tcharCount++;\n\t\t\t}\n\t\t}\n\n\t\tbytes memory bytesStringTrimmed = new bytes(charCount);\n\t\tfor (j = 0; j < charCount; j++) \n\t\t{\n\t\t\tbytesStringTrimmed[j] = bytesString[j];\n\t\t}\n\n\t\treturn string(bytesStringTrimmed);  \n\t}\n\n\tfunction compareStrings(string a, string b) \n\tinternal \n\tpure \n\treturns(bool)\n\t{\n\t\treturn keccak256(bytes(a)) == keccak256(bytes(b));\n\t}\n\n\t\n\t///////////////// get functions for testing\n\n\n  // function GetFileIdAtIndex(uint index)\n\t// external\n\t// view\n\t// returns (string)\n\t// {\n\t// \treturn FileIdIndex[index];\n\t// }\n\n\t// function GetFileAddressAtIndex(uint index)\n\t// external\n\t// view\n\t// returns (address)\n\t// {\n\t// \treturn FileAddressIndex[index];\n\t// }\n\n\tfunction GetNumberOfFiles()\n\texternal\n\tview\n\treturns (uint)\n\t{\n\t\treturn FileIdIndex.length;\n\t}\n\n\t// function GetAddress()\n\t// external\n\t// view\n\t// returns (address)\n\t// {\n\t// \treturn address(this);\n\t// }\n\n\t// function IsOpen()\n\t// external\n\t// view\n\t// returns (bool)\n\t// {\n\t// \treturn (State == StateType.Open);\n\t// }\n\t\n}",
  "sourcePath": "/Users/alexandriapawlik/Documents/Dev/AFGroup/fileVerificationTruffle/contracts/FileRegistry.sol",
  "compiler": {
    "name": "solc",
    "version": "0.4.24+commit.e67f0147.Emscripten.clang"
  },
  "schemaVersion": "3.0.11",
  "updatedAt": "2019-07-25T14:50:56.993Z",
  "devdoc": {
    "methods": {}
  },
  "userdoc": {
    "methods": {
      "CloseRegistry()": {
        "notice": "////////////// accessible by blockchain users"
      },
      "GetFileAddressGivenId(string)": {
        "notice": "////////////// called by receipts"
      },
      "GetNumberOfFiles()": {
        "notice": "////////////// get functions for testing"
      },
      "RegisterFile(address,string)": {
        "notice": "////////////// called by members of file array"
      }
    }
  }
}