{
  "contractName": "Receipt",
  "abi": [
    {
      "constant": true,
      "inputs": [],
      "name": "VerificationDateTime",
      "outputs": [
        {
          "name": "",
          "type": "string"
        }
      ],
      "payable": false,
      "stateMutability": "view",
      "type": "function"
    },
    {
      "constant": true,
      "inputs": [],
      "name": "FileName",
      "outputs": [
        {
          "name": "",
          "type": "string"
        }
      ],
      "payable": false,
      "stateMutability": "view",
      "type": "function"
    },
    {
      "constant": true,
      "inputs": [],
      "name": "State",
      "outputs": [
        {
          "name": "",
          "type": "uint8"
        }
      ],
      "payable": false,
      "stateMutability": "view",
      "type": "function"
    },
    {
      "inputs": [
        {
          "name": "registryAddress",
          "type": "address"
        },
        {
          "name": "fileId",
          "type": "string"
        },
        {
          "name": "fileHash",
          "type": "string"
        },
        {
          "name": "metadataHash",
          "type": "string"
        }
      ],
      "payable": false,
      "stateMutability": "nonpayable",
      "type": "constructor"
    },
    {
      "anonymous": false,
      "inputs": [
        {
          "indexed": true,
          "name": "newReceiptAddress",
          "type": "address"
        },
        {
          "indexed": false,
          "name": "state",
          "type": "uint256"
        }
      ],
      "name": "ReceiptAdded",
      "type": "event"
    },
    {
      "constant": false,
      "inputs": [],
      "name": "Invalidate",
      "outputs": [],
      "payable": false,
      "stateMutability": "nonpayable",
      "type": "function"
    },
    {
      "constant": true,
      "inputs": [],
      "name": "Update",
      "outputs": [],
      "payable": false,
      "stateMutability": "pure",
      "type": "function"
    },
    {
      "constant": true,
      "inputs": [],
      "name": "IsValid",
      "outputs": [
        {
          "name": "",
          "type": "bool"
        }
      ],
      "payable": false,
      "stateMutability": "view",
      "type": "function"
    },
    {
      "constant": false,
      "inputs": [],
      "name": "Verify",
      "outputs": [],
      "payable": false,
      "stateMutability": "nonpayable",
      "type": "function"
    },
    {
      "constant": true,
      "inputs": [],
      "name": "GetFileHash",
      "outputs": [
        {
          "name": "",
          "type": "string"
        }
      ],
      "payable": false,
      "stateMutability": "view",
      "type": "function"
    },
    {
      "constant": true,
      "inputs": [],
      "name": "GetMetadataHash",
      "outputs": [
        {
          "name": "",
          "type": "string"
        }
      ],
      "payable": false,
      "stateMutability": "view",
      "type": "function"
    },
    {
      "constant": true,
      "inputs": [],
      "name": "GetStateInt",
      "outputs": [
        {
          "name": "",
          "type": "uint256"
        }
      ],
      "payable": false,
      "stateMutability": "view",
      "type": "function"
    }
  ],
  "bytecode": "0x60806040523480156200001157600080fd5b5060405162002c9138038062002c91833981018060405281019080805190602001909291908051820192919060200180518201929190602001805182019291905050506000806000806101000a81548160ff021916908360038111156200007457fe5b0217905550826004908051906020019062000091929190620013be565b508160059080519060200190620000aa929190620013be565b508490508073ffffffffffffffffffffffffffffffffffffffff166313027c96856040518263ffffffff167c01000000000000000000000000000000000000000000000000000000000281526004018080602001828103825283818151815260200191508051906020019080838360005b83811015620001385780820151818401526020810190506200011b565b50505050905090810190601f168015620001665780820380516001836020036101000a031916815260200191505b5092505050602060405180830381600087803b1580156200018657600080fd5b505af11580156200019b573d6000803e3d6000fd5b505050506040513d6020811015620001b257600080fd5b8101908080519060200190929190505050600760006101000a81548173ffffffffffffffffffffffffffffffffffffffff021916908373ffffffffffffffffffffffffffffffffffffffff160217905550600760009054906101000a900473ffffffffffffffffffffffffffffffffffffffff16600660006101000a81548173ffffffffffffffffffffffffffffffffffffffff021916908373ffffffffffffffffffffffffffffffffffffffff160217905550600660009054906101000a900473ffffffffffffffffffffffffffffffffffffffff1673ffffffffffffffffffffffffffffffffffffffff1663bf65d4926040518163ffffffff167c0100000000000000000000000000000000000000000000000000000000028152600401600060405180830381600087803b158015620002ed57600080fd5b505af115801562000302573d6000803e3d6000fd5b505050506040513d6000823e3d601f19601f8201168201806040525060208110156200032d57600080fd5b8101908080516401000000008111156200034657600080fd5b828101905060208101848111156200035d57600080fd5b81518560018202830111640100000000821117156200037b57600080fd5b5050929190505050600190805190602001906200039a929190620013be565b50600660009054906101000a900473ffffffffffffffffffffffffffffffffffffffff1673ffffffffffffffffffffffffffffffffffffffff16638e6b6c20306040518263ffffffff167c0100000000000000000000000000000000000000000000000000000000028152600401808273ffffffffffffffffffffffffffffffffffffffff1673ffffffffffffffffffffffffffffffffffffffff168152602001915050600060405180830381600087803b1580156200045957600080fd5b505af11580156200046e573d6000803e3d6000fd5b505050506040513d6000823e3d601f19601f8201168201806040525060208110156200049957600080fd5b810190808051640100000000811115620004b257600080fd5b82810190506020810184811115620004c957600080fd5b8151856001820283011164010000000082111715620004e757600080fd5b50509291905050506002908051906020019062000506929190620013be565b506001600660009054906101000a900473ffffffffffffffffffffffffffffffffffffffff1673ffffffffffffffffffffffffffffffffffffffff1663d00e6ffd6040518163ffffffff167c0100000000000000000000000000000000000000000000000000000000028152600401602060405180830381600087803b1580156200059057600080fd5b505af1158015620005a5573d6000803e3d6000fd5b505050506040513d6020811015620005bc57600080fd5b81019080805190602001909291905050500360038190555060006003541415620005ff57620005f96200068c640100000000026401000000009004565b62000619565b6200061862000ac0640100000000026401000000009004565b5b3073ffffffffffffffffffffffffffffffffffffffff167f81de4dd504f6ea5a2e838bf52b67645dac38a567e6c01358b9510cd1b8321d806000809054906101000a900460ff1660038111156200066c57fe5b6040518082815260200191505060405180910390a250505050506200146d565b6200086160058054600181600116156101000203166002900480601f0160208091040260200160405190810160405280929190818152602001828054600181600116156101000203166002900480156200072a5780601f10620006fe576101008083540402835291602001916200072a565b820191906000526020600020905b8154815290600101906020018083116200070c57829003601f168201915b5050505050600660009054906101000a900473ffffffffffffffffffffffffffffffffffffffff1673ffffffffffffffffffffffffffffffffffffffff16630cac2c6e6040518163ffffffff167c0100000000000000000000000000000000000000000000000000000000028152600401600060405180830381600087803b158015620007b657600080fd5b505af1158015620007cb573d6000803e3d6000fd5b505050506040513d6000823e3d601f19601f820116820180604052506020811015620007f657600080fd5b8101908080516401000000008111156200080f57600080fd5b828101905060208101848111156200082657600080fd5b81518560018202830111640100000000821117156200084457600080fd5b5050929190505050620012e1640100000000026401000000009004565b1515620008925760016000806101000a81548160ff021916908360038111156200088757fe5b021790555062000abe565b62000a6760048054600181600116156101000203166002900480601f016020809104026020016040519081016040528092919081815260200182805460018160011615610100020316600290048015620009305780601f10620009045761010080835404028352916020019162000930565b820191906000526020600020905b8154815290600101906020018083116200091257829003601f168201915b5050505050600660009054906101000a900473ffffffffffffffffffffffffffffffffffffffff1673ffffffffffffffffffffffffffffffffffffffff1663dc6a65b96040518163ffffffff167c0100000000000000000000000000000000000000000000000000000000028152600401600060405180830381600087803b158015620009bc57600080fd5b505af1158015620009d1573d6000803e3d6000fd5b505050506040513d6000823e3d601f19601f820116820180604052506020811015620009fc57600080fd5b81019080805164010000000081111562000a1557600080fd5b8281019050602081018481111562000a2c57600080fd5b815185600182028301116401000000008211171562000a4a57600080fd5b5050929190505050620012e1640100000000026401000000009004565b151562000a985760016000806101000a81548160ff0219169083600381111562000a8d57fe5b021790555062000abd565b60026000806101000a81548160ff0219169083600381111562000ab757fe5b02179055505b5b565b600060038081111562000acf57fe5b6000809054906101000a900460ff16600381111562000aea57fe5b1415151562000b87576040517f08c379a00000000000000000000000000000000000000000000000000000000081526004018080602001828103825260368152602001807f417474656d7074656420746f207665726966792061207265636569707420746881526020017f61742773206265656e20696e76616c6964617465642e0000000000000000000081525060400191505060405180910390fd5b600090505b6003548110801562000d0f5750600660009054906101000a900473ffffffffffffffffffffffffffffffffffffffff1673ffffffffffffffffffffffffffffffffffffffff1663cb3805eb82600354036040518263ffffffff167c010000000000000000000000000000000000000000000000000000000002815260040180828152602001915050602060405180830381600087803b15801562000c2f57600080fd5b505af115801562000c44573d6000803e3d6000fd5b505050506040513d602081101562000c5b57600080fd5b810190808051906020019092919050505073ffffffffffffffffffffffffffffffffffffffff16634f829d306040518163ffffffff167c0100000000000000000000000000000000000000000000000000000000028152600401602060405180830381600087803b15801562000cd057600080fd5b505af115801562000ce5573d6000803e3d6000fd5b505050506040513d602081101562000cfc57600080fd5b8101908080519060200190929190505050155b1562000d215780600101905062000b8c565b60035481141562000d4b5762000d456200068c640100000000026401000000009004565b620012de565b62000fd060058054600181600116156101000203166002900480601f01602080910402602001604051908101604052809291908181526020018280546001816001161561010002031660029004801562000de95780601f1062000dbd5761010080835404028352916020019162000de9565b820191906000526020600020905b81548152906001019060200180831162000dcb57829003601f168201915b5050505050600660009054906101000a900473ffffffffffffffffffffffffffffffffffffffff1673ffffffffffffffffffffffffffffffffffffffff1663cb3805eb84600354036040518263ffffffff167c010000000000000000000000000000000000000000000000000000000002815260040180828152602001915050602060405180830381600087803b15801562000e8457600080fd5b505af115801562000e99573d6000803e3d6000fd5b505050506040513d602081101562000eb057600080fd5b810190808051906020019092919050505073ffffffffffffffffffffffffffffffffffffffff16630cac2c6e6040518163ffffffff167c0100000000000000000000000000000000000000000000000000000000028152600401600060405180830381600087803b15801562000f2557600080fd5b505af115801562000f3a573d6000803e3d6000fd5b505050506040513d6000823e3d601f19601f82011682018060405250602081101562000f6557600080fd5b81019080805164010000000081111562000f7e57600080fd5b8281019050602081018481111562000f9557600080fd5b815185600182028301116401000000008211171562000fb357600080fd5b5050929190505050620012e1640100000000026401000000009004565b1515620010015760016000806101000a81548160ff0219169083600381111562000ff657fe5b0217905550620012dd565b6200128660048054600181600116156101000203166002900480601f0160208091040260200160405190810160405280929190818152602001828054600181600116156101000203166002900480156200109f5780601f1062001073576101008083540402835291602001916200109f565b820191906000526020600020905b8154815290600101906020018083116200108157829003601f168201915b5050505050600660009054906101000a900473ffffffffffffffffffffffffffffffffffffffff1673ffffffffffffffffffffffffffffffffffffffff1663cb3805eb84600354036040518263ffffffff167c010000000000000000000000000000000000000000000000000000000002815260040180828152602001915050602060405180830381600087803b1580156200113a57600080fd5b505af11580156200114f573d6000803e3d6000fd5b505050506040513d60208110156200116657600080fd5b810190808051906020019092919050505073ffffffffffffffffffffffffffffffffffffffff1663dc6a65b96040518163ffffffff167c0100000000000000000000000000000000000000000000000000000000028152600401600060405180830381600087803b158015620011db57600080fd5b505af1158015620011f0573d6000803e3d6000fd5b505050506040513d6000823e3d601f19601f8201168201806040525060208110156200121b57600080fd5b8101908080516401000000008111156200123457600080fd5b828101905060208101848111156200124b57600080fd5b81518560018202830111640100000000821117156200126957600080fd5b5050929190505050620012e1640100000000026401000000009004565b1515620012b75760016000806101000a81548160ff02191690836003811115620012ac57fe5b0217905550620012dc565b60026000806101000a81548160ff02191690836003811115620012d657fe5b02179055505b5b5b50565b6000816040518082805190602001908083835b6020831015156200131b5780518252602082019150602081019050602083039250620012f4565b6001836020036101000a038019825116818451168082178552505050505050905001915050604051809103902060001916836040518082805190602001908083835b6020831015156200138457805182526020820191506020810190506020830392506200135d565b6001836020036101000a03801982511681845116808217855250505050505090500191505060405180910390206000191614905092915050565b828054600181600116156101000203166002900490600052602060002090601f016020900481019282601f106200140157805160ff191683800117855562001432565b8280016001018555821562001432579182015b828111156200143157825182559160200191906001019062001414565b5b50905062001441919062001445565b5090565b6200146a91905b80821115620014665760008160009055506001016200144c565b5090565b90565b611814806200147d6000396000f3006080604052600436106100a4576000357c0100000000000000000000000000000000000000000000000000000000900463ffffffff1680630cac2c6e146100a9578063143087ee146101395780631e337318146101505780634f829d30146101e0578063563d3fd81461020f5780637090500014610226578063af4b7f1414610251578063bf65d49214610268578063dc6a65b9146102f8578063f1b6dccd14610388575b600080fd5b3480156100b557600080fd5b506100be6103c1565b6040518080602001828103825283818151815260200191508051906020019080838360005b838110156100fe5780820151818401526020810190506100e3565b50505050905090810190601f16801561012b5780820380516001836020036101000a031916815260200191505b509250505060405180910390f35b34801561014557600080fd5b5061014e610463565b005b34801561015c57600080fd5b50610165610c22565b6040518080602001828103825283818151815260200191508051906020019080838360005b838110156101a557808201518184015260208101905061018a565b50505050905090810190601f1680156101d25780820380516001836020036101000a031916815260200191505b509250505060405180910390f35b3480156101ec57600080fd5b506101f5610cc0565b604051808215151515815260200191505060405180910390f35b34801561021b57600080fd5b50610224610cef565b005b34801561023257600080fd5b5061023b610f48565b6040518082815260200191505060405180910390f35b34801561025d57600080fd5b50610266610f69565b005b34801561027457600080fd5b5061027d610f6b565b6040518080602001828103825283818151815260200191508051906020019080838360005b838110156102bd5780820151818401526020810190506102a2565b50505050905090810190601f1680156102ea5780820380516001836020036101000a031916815260200191505b509250505060405180910390f35b34801561030457600080fd5b5061030d611009565b6040518080602001828103825283818151815260200191508051906020019080838360005b8381101561034d578082015181840152602081019050610332565b50505050905090810190601f16801561037a5780820380516001836020036101000a031916815260200191505b509250505060405180910390f35b34801561039457600080fd5b5061039d6110ab565b604051808260038111156103ad57fe5b60ff16815260200191505060405180910390f35b606060058054600181600116156101000203166002900480601f0160208091040260200160405190810160405280929190818152602001828054600181600116156101000203166002900480156104595780601f1061042e57610100808354040283529160200191610459565b820191906000526020600020905b81548152906001019060200180831161043c57829003601f168201915b5050505050905090565b600060038081111561047157fe5b6000809054906101000a900460ff16600381111561048b57fe5b14151515610527576040517f08c379a00000000000000000000000000000000000000000000000000000000081526004018080602001828103825260368152602001807f417474656d7074656420746f207665726966792061207265636569707420746881526020017f61742773206265656e20696e76616c6964617465642e0000000000000000000081525060400191505060405180910390fd5b600090505b600354811080156106a85750600660009054906101000a900473ffffffffffffffffffffffffffffffffffffffff1673ffffffffffffffffffffffffffffffffffffffff1663cb3805eb82600354036040518263ffffffff167c010000000000000000000000000000000000000000000000000000000002815260040180828152602001915050602060405180830381600087803b1580156105cd57600080fd5b505af11580156105e1573d6000803e3d6000fd5b505050506040513d60208110156105f757600080fd5b810190808051906020019092919050505073ffffffffffffffffffffffffffffffffffffffff16634f829d306040518163ffffffff167c0100000000000000000000000000000000000000000000000000000000028152600401602060405180830381600087803b15801561066b57600080fd5b505af115801561067f573d6000803e3d6000fd5b505050506040513d602081101561069557600080fd5b8101908080519060200190929190505050155b156106b85780600101905061052c565b6003548114156106cf576106ca6110bd565b610c1f565b61093660058054600181600116156101000203166002900480601f0160208091040260200160405190810160405280929190818152602001828054600181600116156101000203166002900480156107685780601f1061073d57610100808354040283529160200191610768565b820191906000526020600020905b81548152906001019060200180831161074b57829003601f168201915b5050505050600660009054906101000a900473ffffffffffffffffffffffffffffffffffffffff1673ffffffffffffffffffffffffffffffffffffffff1663cb3805eb84600354036040518263ffffffff167c010000000000000000000000000000000000000000000000000000000002815260040180828152602001915050602060405180830381600087803b15801561080257600080fd5b505af1158015610816573d6000803e3d6000fd5b505050506040513d602081101561082c57600080fd5b810190808051906020019092919050505073ffffffffffffffffffffffffffffffffffffffff16630cac2c6e6040518163ffffffff167c0100000000000000000000000000000000000000000000000000000000028152600401600060405180830381600087803b1580156108a057600080fd5b505af11580156108b4573d6000803e3d6000fd5b505050506040513d6000823e3d601f19601f8201168201806040525060208110156108de57600080fd5b8101908080516401000000008111156108f657600080fd5b8281019050602081018481111561090c57600080fd5b815185600182028301116401000000008211171561092957600080fd5b50509291905050506114b4565b15156109645760016000806101000a81548160ff0219169083600381111561095a57fe5b0217905550610c1e565b610bcb60048054600181600116156101000203166002900480601f0160208091040260200160405190810160405280929190818152602001828054600181600116156101000203166002900480156109fd5780601f106109d2576101008083540402835291602001916109fd565b820191906000526020600020905b8154815290600101906020018083116109e057829003601f168201915b5050505050600660009054906101000a900473ffffffffffffffffffffffffffffffffffffffff1673ffffffffffffffffffffffffffffffffffffffff1663cb3805eb84600354036040518263ffffffff167c010000000000000000000000000000000000000000000000000000000002815260040180828152602001915050602060405180830381600087803b158015610a9757600080fd5b505af1158015610aab573d6000803e3d6000fd5b505050506040513d6020811015610ac157600080fd5b810190808051906020019092919050505073ffffffffffffffffffffffffffffffffffffffff1663dc6a65b96040518163ffffffff167c0100000000000000000000000000000000000000000000000000000000028152600401600060405180830381600087803b158015610b3557600080fd5b505af1158015610b49573d6000803e3d6000fd5b505050506040513d6000823e3d601f19601f820116820180604052506020811015610b7357600080fd5b810190808051640100000000811115610b8b57600080fd5b82810190506020810184811115610ba157600080fd5b8151856001820283011164010000000082111715610bbe57600080fd5b50509291905050506114b4565b1515610bf95760016000806101000a81548160ff02191690836003811115610bef57fe5b0217905550610c1d565b60026000806101000a81548160ff02191690836003811115610c1757fe5b02179055505b5b5b50565b60028054600181600116156101000203166002900480601f016020809104026020016040519081016040528092919081815260200182805460018160011615610100020316600290048015610cb85780601f10610c8d57610100808354040283529160200191610cb8565b820191906000526020600020905b815481529060010190602001808311610c9b57829003601f168201915b505050505081565b6000600380811115610cce57fe5b6000809054906101000a900460ff166003811115610ce857fe5b1415905090565b60036000806101000a81548160ff02191690836003811115610d0d57fe5b02179055506001600660009054906101000a900473ffffffffffffffffffffffffffffffffffffffff1673ffffffffffffffffffffffffffffffffffffffff1663d00e6ffd6040518163ffffffff167c0100000000000000000000000000000000000000000000000000000000028152600401602060405180830381600087803b158015610d9a57600080fd5b505af1158015610dae573d6000803e3d6000fd5b505050506040513d6020811015610dc457600080fd5b8101908080519060200190929190505050036003541015610f4657600354610ded60035461158d565b1115610f4557600660009054906101000a900473ffffffffffffffffffffffffffffffffffffffff1673ffffffffffffffffffffffffffffffffffffffff166311c5c1fb610e3c60035461158d565b6040518263ffffffff167c010000000000000000000000000000000000000000000000000000000002815260040180828152602001915050602060405180830381600087803b158015610e8e57600080fd5b505af1158015610ea2573d6000803e3d6000fd5b505050506040513d6020811015610eb857600080fd5b810190808051906020019092919050505073ffffffffffffffffffffffffffffffffffffffff1663143087ee6040518163ffffffff167c0100000000000000000000000000000000000000000000000000000000028152600401600060405180830381600087803b158015610f2c57600080fd5b505af1158015610f40573d6000803e3d6000fd5b505050505b5b565b60008060009054906101000a900460ff166003811115610f6457fe5b905090565b565b60018054600181600116156101000203166002900480601f0160208091040260200160405190810160405280929190818152602001828054600181600116156101000203166002900480156110015780601f10610fd657610100808354040283529160200191611001565b820191906000526020600020905b815481529060010190602001808311610fe457829003601f168201915b505050505081565b606060048054600181600116156101000203166002900480601f0160208091040260200160405190810160405280929190818152602001828054600181600116156101000203166002900480156110a15780601f10611076576101008083540402835291602001916110a1565b820191906000526020600020905b81548152906001019060200180831161108457829003601f168201915b5050505050905090565b6000809054906101000a900460ff1681565b61127760058054600181600116156101000203166002900480601f0160208091040260200160405190810160405280929190818152602001828054600181600116156101000203166002900480156111565780601f1061112b57610100808354040283529160200191611156565b820191906000526020600020905b81548152906001019060200180831161113957829003601f168201915b5050505050600660009054906101000a900473ffffffffffffffffffffffffffffffffffffffff1673ffffffffffffffffffffffffffffffffffffffff16630cac2c6e6040518163ffffffff167c0100000000000000000000000000000000000000000000000000000000028152600401600060405180830381600087803b1580156111e157600080fd5b505af11580156111f5573d6000803e3d6000fd5b505050506040513d6000823e3d601f19601f82011682018060405250602081101561121f57600080fd5b81019080805164010000000081111561123757600080fd5b8281019050602081018481111561124d57600080fd5b815185600182028301116401000000008211171561126a57600080fd5b50509291905050506114b4565b15156112a55760016000806101000a81548160ff0219169083600381111561129b57fe5b02179055506114b2565b61145f60048054600181600116156101000203166002900480601f01602080910402602001604051908101604052809291908181526020018280546001816001161561010002031660029004801561133e5780601f106113135761010080835404028352916020019161133e565b820191906000526020600020905b81548152906001019060200180831161132157829003601f168201915b5050505050600660009054906101000a900473ffffffffffffffffffffffffffffffffffffffff1673ffffffffffffffffffffffffffffffffffffffff1663dc6a65b96040518163ffffffff167c0100000000000000000000000000000000000000000000000000000000028152600401600060405180830381600087803b1580156113c957600080fd5b505af11580156113dd573d6000803e3d6000fd5b505050506040513d6000823e3d601f19601f82011682018060405250602081101561140757600080fd5b81019080805164010000000081111561141f57600080fd5b8281019050602081018481111561143557600080fd5b815185600182028301116401000000008211171561145257600080fd5b50509291905050506114b4565b151561148d5760016000806101000a81548160ff0219169083600381111561148357fe5b02179055506114b1565b60026000806101000a81548160ff021916908360038111156114ab57fe5b02179055505b5b565b6000816040518082805190602001908083835b6020831015156114ec57805182526020820191506020810190506020830392506114c7565b6001836020036101000a038019825116818451168082178552505050505050905001915050604051809103902060001916836040518082805190602001908083835b602083101515611553578051825260208201915060208101905060208303925061152e565b6001836020036101000a03801982511681845116808217855250505050505090500191505060405180910390206000191614905092915050565b6000808290505b600660009054906101000a900473ffffffffffffffffffffffffffffffffffffffff1673ffffffffffffffffffffffffffffffffffffffff1663d00e6ffd6040518163ffffffff167c0100000000000000000000000000000000000000000000000000000000028152600401602060405180830381600087803b15801561161a57600080fd5b505af115801561162e573d6000803e3d6000fd5b505050506040513d602081101561164457600080fd5b81019080805190602001909291905050508110156117de57600660009054906101000a900473ffffffffffffffffffffffffffffffffffffffff1673ffffffffffffffffffffffffffffffffffffffff166311c5c1fb826040518263ffffffff167c010000000000000000000000000000000000000000000000000000000002815260040180828152602001915050602060405180830381600087803b1580156116ed57600080fd5b505af1158015611701573d6000803e3d6000fd5b505050506040513d602081101561171757600080fd5b810190808051906020019092919050505073ffffffffffffffffffffffffffffffffffffffff16634f829d306040518163ffffffff167c0100000000000000000000000000000000000000000000000000000000028152600401602060405180830381600087803b15801561178b57600080fd5b505af115801561179f573d6000803e3d6000fd5b505050506040513d60208110156117b557600080fd5b8101908080519060200190929190505050156117d3578091506117e2565b806001019050611594565b8291505b509190505600a165627a7a723058200bba66fddde296d3fdce09e86161125a5e490ce6e7eb2c73b62b6168a3735ee50029",
  "source": "\n// Alexandria Pawlik, June 2019\n\n\npragma solidity ^0.4.24;\n\n\nimport \"./FileRegistry.sol\";\nimport \"./File.sol\";\n\n\n// VERIFICATION RECEIPT CONTRACT\n/////////////////////////////////////////////////////////////////\n\n\ncontract Receipt\n{\n  ///////////////// public data\n\n\n\tenum StateType { NotVerified, Changed, NotChanged, Invalid}\n\tStateType public State;\n\n\tstring public FileName; // name of the file that this receipt is for\n\tstring public VerificationDateTime; // MM/DD/YY HH:MM:SS\n\t\n\t// emitted when new receipt contract is successfully deployed\n\tevent ReceiptAdded(address indexed newReceiptAddress, uint state);\n\n\n  ///////////////// internal data\n\n\n  uint internal Index;  // index of receipt in file's history array\n  string internal FileHash; // sha256 hash of instant file content\n\tstring internal MetadataHash; // sha256 hash of instant file metadata\n\n  File internal MyFile;\n\taddress internal FileAddress;\n\n\n  /////////////////\n\n\n\tconstructor (address registryAddress, string fileId, string fileHash, string metadataHash)\n\tpublic\n\t{\n\t\t// for debugging, not permanent\n\t\tState = StateType.NotVerified;\n\n\t\t// verification data\n\t\tFileHash = fileHash;\n\t\tMetadataHash = metadataHash;\n\n    // registry\n\t\tFileRegistry MyFileRegistry = FileRegistry(registryAddress);\n\n    // find file id in this registry\n    FileAddress = MyFileRegistry.GetFileAddressGivenId(fileId);\n\n\t\t// file\n\t\tMyFile = File(FileAddress);\n\t\tFileName = MyFile.FileName();\n\n\t\t// add verification receipt to history, makes sure that file has not been deleted\n\t\tVerificationDateTime = MyFile.AddReceipt(address(this));\n    Index = MyFile.GetNumberOfReceipts() - 1;\n\n\t\t// if this is the first verification, verify with original\n\t\tif (Index == 0)\n\t\t{\n\t\t\tVerifyWithOriginal();\n\t\t}\n\t\t// else this is not the first verification, compare to the most recent valid verification\n\t\telse\n    {\n      Verify();\n    }\n\n\t\temit ReceiptAdded(address(this), uint(State));\n\t}\n\n\n  ///////////////// accessible by blockchain users\n\n\n  function Invalidate()\n  external\n  {\n    State = StateType.Invalid;\n\n    // if this isn't the last receipt\n    if (Index < (MyFile.GetNumberOfReceipts() - 1)) \n    {\n\t\t\t// if there's a valid receipt after this one\n\t\t\tif (GetNextValidReceiptAfter(Index) > Index)\n\t\t\t{\n\t\t\t\tReceipt(MyFile.GetReceiptAddressAtIndex(GetNextValidReceiptAfter(Index))).Verify();\n\t\t\t}\n    }\n  }\n\n  // allows workbench users to refresh displayed data\n  function Update()\n  external \n\tpure {}\n\n\n  ///////////////// helper functions\n\n\n  function VerifyWithOriginal()\n  internal\n  {\n    // first check that metadata hashes (contenttype, etag, id) match\n    if ( !compareStrings(MetadataHash, MyFile.GetMetadataHash()) ) \n    {\n      State = StateType.Changed;\n    }\n    // then check that content hashes match\n    else if ( !compareStrings(FileHash, MyFile.GetFileHash()) )\n    {\n      State = StateType.Changed;\n    }\n    // unchanged\n    else\n    {\n      State = StateType.NotChanged;\n    }\n  }\n\n\tfunction stringToAddress(string _a) \n  internal \n  pure \n  returns(address)\n  {\n    bytes memory tmp = bytes(_a);\n    uint160 iaddr = 0;\n    uint160 b1;\n    uint160 b2;\n    \n    for (uint i=2; i<2+2*20; i+=2)\n    {\n      iaddr *= 256;\n      b1 = uint160(tmp[i]);\n      b2 = uint160(tmp[i+1]);\n      if ((b1 >= 97)&&(b1 <= 102)) b1 -= 87;\n      else if ((b1 >= 48)&&(b1 <= 57)) b1 -= 48;\n      if ((b2 >= 97)&&(b2 <= 102)) b2 -= 87;\n      else if ((b2 >= 48)&&(b2 <= 57)) b2 -= 48;\n      iaddr += (b1*16+b2);\n    }\n\n    return address(iaddr);\n  }\n\n\tfunction stringToBytes32(string memory source) \n  internal \n  pure \n  returns(bytes32 result) \n  {\n    bytes memory tempEmptyStringTest = bytes(source);\n    if (tempEmptyStringTest.length == 0) \n    {\n      return 0x0;\n    }\n\n    assembly \n    {\n      result := mload(add(source, 32))\n    }\n  }\n\n\tfunction compareStrings(string a, string b) \n  internal \n  pure \n  returns(bool)\n  {\n    return keccak256(bytes(a)) == keccak256(bytes(b));\n  }\n\n\t// assumes that receipt at idx isn't the last receipt\n\t// returns the index of the next valid receipt in the array (idx increasing)\n\t// returns idx if all the following receipts are invalid\n\tfunction GetNextValidReceiptAfter(uint idx)\n\tinternal\n\tview\n\treturns (uint)\n\t{\n\t\tfor (uint i = idx; i < MyFile.GetNumberOfReceipts(); ++i)\n\t\t{\n\t\t\tif (Receipt(MyFile.GetReceiptAddressAtIndex(i)).IsValid()) return i;\n\t\t}\n\t\t// returns idx if all the following receipts are invalid\n\t\treturn idx;\n\t}\n\n\n  ///////////////// called by other receipts\n\n\n  function IsValid()\n  public\n  view\n  returns (bool)\n  {\n    return (State != StateType.Invalid);\n  }\n\n  // determine if file matches its last verification and set state\n\tfunction Verify()\n\tpublic\n\t{\n\t\trequire(State != StateType.Invalid, \"Attempted to verify a receipt that's been invalidated.\");\n\n    // find most recent valid verification\n    uint backcount = 0;\n    while ( \n\t\t\t(backcount < Index) &&\n      !Receipt(MyFile.GetReceiptAddressBefore(Index - backcount)).IsValid() )\n    {\n      ++backcount;\n    }\n\n    // if backcount reached its limit, compare back to original\n    if (backcount == Index)\n    {\n      VerifyWithOriginal();\n    }\n    else \n    {\n      // first check that metadata hashes (contenttype, etag, id) match\n      if ( !compareStrings(MetadataHash,\n        Receipt(MyFile.GetReceiptAddressBefore(Index - backcount)).GetMetadataHash()) ) \n      {\n        State = StateType.Changed;\n      } \n      // then check that content hashes match\n      else if ( !compareStrings(FileHash,\n        Receipt(MyFile.GetReceiptAddressBefore(Index - backcount)).GetFileHash()) ) \n      {\n        State = StateType.Changed;\n      }\n      // unchanged\n      else\n      {\n        State = StateType.NotChanged;\n      }\n    }    \n\t}\n\n\t// get function for internal variable\n\tfunction GetFileHash()\n\texternal\n\tview\n\treturns (string)\n\t{\n\t\treturn FileHash;\n\t}\n\n\t// get function for internal variable\n\tfunction GetMetadataHash()\n\texternal\n\tview\n\treturns (string)\n\t{\n\t\treturn MetadataHash;\n\t}\n\n\t// get function for state enum variable\n\tfunction GetStateInt()\n\texternal\n\tview\n\treturns (uint)\n\t{\n\t\treturn uint(State);\n\t}\n\n\n\t///////////////// get functions for testing\n\t\n\n\t// function IsChanged()\n\t// external\n\t// view\n\t// returns (bool)\n\t// {\n\t// \treturn (State == StateType.Changed);\n\t// }\n\n\t// function IsNotChanged()\n\t// external\n\t// view\n\t// returns (bool)\n\t// {\n\t// \treturn (State == StateType.NotChanged);\n\t// }\n\n\t// function GetAddress()\n\t// external\n\t// view\n\t// returns (address)\n\t// {\n\t// \treturn address(this);\n\t// }\n}",
  "sourcePath": "/Users/alexandriapawlik/Documents/Dev/AFGroup/fileVerificationTruffle/contracts/Receipt.sol",
  "compiler": {
    "name": "solc",
    "version": "0.4.24+commit.e67f0147.Emscripten.clang"
  },
  "schemaVersion": "3.0.11",
  "updatedAt": "2019-07-25T13:40:57.405Z",
  "devdoc": {
    "methods": {}
  },
  "userdoc": {
    "methods": {
      "Invalidate()": {
        "notice": "////////////// accessible by blockchain users"
      },
      "IsValid()": {
        "notice": "////////////// called by other receipts"
      }
    }
  }
}